:020000040800F2
:1000000000500020E93F0008810300088903000830
:100010008B0300088D0300088F0300080000000018
:100020000000000000000000000000009103000834
:1000300093030008000000009503000897030008E0
:1000400031400008314000083140000831400008CC
:1000500031400008314000083140000831400008BC
:1000600031400008314000083140000831400008AC
:10007000314000083140000831400008314000089C
:10008000314000083140000831400008314000088C
:10009000A103000831400008314000083140000849
:1000A000314000083140000831400008314000086C
:1000B000314000083140000831400008314000085C
:1000C000314000083140000831400008314000084C
:1000D000314000083140000831400008314000083C
:1000E00031400008314000083140000800000000A5
:1000F0000000000000000000000000000000000000
:0C01000000000000000000005FF808F1A3
:10010C0070B5860747D0541E002A3ED00346CAB2AB
:10011C0001E0013C39D303F8012B9D07F9D1032CE5
:10012C002CD9CDB205EB05250F2C1A4605EB054550
:10013C0034D9A4F1100C2CF00F0603F1100EB644B8
:10014C004FEA1C1CC2E90055C2E902551032724537
:10015C00F8D10CF1010214F00C0F03EB021204F0B5
:10016C000F0C13D0ACF1040323F00303043313443A
:10017C0042F8045B9342FBD10CF003042CB1C9B2DE
:10018C001C4403F8011BA342FBD170BD644613460B
:10019C00002CF4D1F9E703461446C0E7A446E1E786
:1001AC0070B50F4B0F4DAB42A3EB050607D00024E7
:1001BC00B61055F8043B01349847A642F9D803F021
:1001CC0033FF094D094B5E1BAB424FEAA60606D026
:1001DC00002455F8043B01349847A642F9D870BD69
:1001EC00B8400008B8400008B8400008BC400008FF
:1001FC0010B5054C237833B9044B13B10448AFF355
:10020C0000800123237010BD640100200000000059
:10021C003440000808B5034B1BB103490348AFF346
:10022C00008008BD00000000680100203440000878
:10023C0084B00F4B9A6942F010029A619A6902F0ED
:10024C0010020192019A9A6942F020029A619A690D
:10025C0002F020020292029A9A6942F004029A6118
:10026C009B6903F004030393039B04B0704700BF26
:10027C000010024072B6FEE700B585B00023019372
:10028C00029303930F48104A026083600373037553
:10029C004FF46022C26143600123036100F0A0F9B6
:1002AC0060B90123019302930023039301A905482C
:1002BC0000F0CAF820B905B05DF804FBFFF7DAFFCF
:1002CC00FFF7D8FF800100200024014000B595B055
:1002DC00282200210DEB0200FFF712FF00230593EB
:1002EC000693079308930993019302930393049342
:1002FC0001230A934FF4A0220B920E930223119325
:10030C004FF4803312934FF4E01313930AA800F0C8
:10031C004BFAE8B90F2305930221069100230793AA
:10032C004FF480620892099305A800F075FC88B917
:10033C00122301934FF4004303930023049301A869
:10034C0000F032FD40B900F037FC15B05DF804FB4D
:10035C00FFF790FFFFF78EFFFFF78CFF08B500F05B
:10036C00E9F9FFF7B3FFFFF763FFFFF785FF02F033
:10037C00DBFEFEE708B500F007FDFEE7FEE7FEE753
:10038C00FEE7FEE770477047704708B500F0E4F9E8
:10039C0008BD000008B5024801F002FD08BD00BF11
:1003AC008C06002082B00E4B9A6942F001029A61D1
:1003BC009A6902F001020092009ADA6942F08052C6
:1003CC00DA61DB6903F080530193019B054A5368A2
:1003DC0023F0E06343F08063536002B0704700BFCA
:1003EC00001002400000014000B587B000230293CA
:1003FC000393049305930268114B9A4202D007B001
:10040C005DF804FB03F56C439A6942F400729A613F
:10041C009A6902F400720092009A9A6942F00402FE
:10042C009A619B6903F004030193019B36230293A9
:10043C000323039302A9034800F042FDDFE700BF4A
:10044C00002401400008014030B482B00022019227
:10045C0090F82420012A00F08F800346012280F8B6
:10046C0024204A68062A2DD80468606B02EB8202AD
:10047C00053A4FF01F0C0CFA02FC20EA0C000D6838
:10048C0005FA02F2024362630A68092A38D91C6829
:10049C00E06802EB42021E3A4FF0070C0CFA02FC29
:1004AC0020EA0C008D6805FA02F20243E2600A6849
:1004BC00103A012A34D90020002283F8242002B0FB
:1004CC0030BC70470C2A0DD80568286B02EB8202F1
:1004DC00233A1F24944020EA04000C6894402043E3
:1004EC002863D1E70568E86A02EB8202413A1F24CF
:1004FC00944020EA04000C6894402043E862C3E76F
:10050C001C68206902EB42024FF0070C0CFA02FC4B
:10051C0020EA0C008D6805FA02F202432261C6E75C
:10052C001A681648824205D09A6A42F020029A62F2
:10053C000120C1E7906810F4000F1BD1906840F4C3
:10054C00000090600A68102A01D00020B4E70C4A21
:10055C0012680C49A1FB0212920C02EB82025200AF
:10056C00019202E0019A013A0192019A002AF9D112
:10057C000020A1E700209FE70220A0E70024014013
:10058C000800002083DE1B4338B503689A6812F01C
:10059C00010F01D1002038BD04469A6822F00102F7
:1005AC009A6000F0E5F8054623689B6813F0010F8C
:1005BC0013D000F0DDF8431B022BF5D923689B68A0
:1005CC0013F0010FF0D0A36A43F01003A362E36AA7
:1005DC0043F00103E3620120DDE70020DBE70000CC
:1005EC0000287BD070B50446836A002B4DD0204682
:1005FC00FFF7CAFFA36A13F0100369D1002867D173
:10060C00A26A22F4885222F0020242F00202A26292
:10061C006268E1690A43217B42EA4102A568B5F5AB
:10062C00807F02D0012D36D01D46267D012E35D07F
:10063C002668716821F46941294371602568AE68A8
:10064C00274931401143A960A168B1F5807F01D0E1
:10065C00012902D12369013B1B052568E96A21F4B4
:10066C0070010B43EB62236899681E4B0B409A4256
:10067C0025D0A36A23F0120343F01003A362E36AAC
:10068C0043F00103E362012027E0C36280F82430C9
:10069C00FFF7AAFEABE74FF48075C6E731B9A16945
:1006AC00013945EA413141F40065C1E7A16A41F0E5
:1006BC002001A162E16A41F00101E162B8E7002387
:1006CC00E362A36A23F0030343F00103A36204E093
:1006DC00A36A43F01003A362012070BD0120704790
:1006EC00FDF7E1FFFE0E1FFF10B504460E4B1A7806
:1006FC004FF47A73B3FBF2F30C4A1068B0FBF3F0CF
:10070C0000F050FD68B90F2C01D901200AE000223D
:10071C0021464FF0FF3000F027FD054B1C600020F8
:10072C0000E0012010BD00BF0000002008000020E8
:10073C000400002008B5074A136843F01003136047
:10074C00032000F0FFFC0F20FFF7CEFFFFF72AFE7F
:10075C00002008BD00200240034A1168034B1B789F
:10076C000B441360704700BFB00100200000002054
:10077C00014B1868704700BFB001002082B0084BD5
:10078C001B68084AA2FB03235B0A00FB03F30193DB
:10079C0000BF019B5A1E0192002BF9D102B0704789
:1007AC0008000020D34D6210002800F0F18170B5D4
:1007BC0082B00446036813F0010F2CD0994B5B6890
:1007CC0003F00C03042B1DD0964B5B6803F00C0359
:1007DC00082B12D06368B3F5803F41D0002B55D164
:1007EC0003F1804303F504331A6822F480321A6053
:1007FC001A6822F480221A6037E08A4B5B6813F483
:10080C00803FE7D0874B1B6813F4003F03D063682D
:10081C00002B00F0BF81236813F0020F75D0814BC1
:10082C005B6813F00C0F5FD07E4B5B6803F00C031E
:10083C00082B54D02369002B00F08A807A4B0122BC
:10084C001A60FFF795FF0546764B1B6813F0020FF5
:10085C0075D1FFF78DFF401B0228F5D903209EE1CF
:10086C00704A136843F480331360636843B3FFF733
:10087C007FFF05466B4B1B6813F4003FCBD1FFF792
:10088C0077FF401B6428F5D9032088E1B3F5A02F2E
:10089C0009D0644B1A6822F480321A601A6822F468
:1008AC0080221A60E1E703F18043A3F53C331A6818
:1008BC0042F480221A601A6842F480321A60D4E73B
:1008CC00FFF756FF0546574B1B6813F4003FA2D0A9
:1008DC00FFF74EFF401B6428F5D903205FE1514B15
:1008EC005B6813F4803FA5D14E4B1B6813F0020FCD
:1008FC0003D02369012B40F04F814A4A136823F03F
:10090C00F803616943EAC1031360236813F0080F0D
:10091C0033D0A369002B5CD0434B0122C3F8802455
:10092C00FFF726FF05463F4B5B6A13F0020F21D100
:10093C00FFF71EFF401B0228F5D903202FE1394A8F
:10094C00136823F0F803616943EAC1031360DCE721
:10095C00354B00221A60FFF70BFF0546314B1B6825
:10096C0013F0020FD1D0FFF703FF401B0228F5D97B
:10097C00032014E10120FFF701FF236813F0040F9B
:10098C0000F09680274BDB6913F0805F34D1254B48
:10099C00DA6942F08052DA61DB6903F0805301932B
:1009AC00019B0125214B1B6813F4807F26D0E36843
:1009BC00012B3DD0002B53D103F1804303F50433BD
:1009CC001A6A22F001021A621A6A22F004021A62EE
:1009DC0033E0154B0022C3F88024FFF7C9FE05460F
:1009EC00104B5B6A13F0020FC7D0FFF7C1FE401B20
:1009FC000228F5D90320D2E00025D3E70B4A13686F
:100A0C0043F480731360FFF7B3FE0646074B1B6875
:100A1C0013F4807FCBD1FFF7ABFE801B6428F5D994
:100A2C000320BCE000100240000042420070004075
:100A3C005F4A136A43F001031362E36833B3FFF7B1
:100A4C0097FE06465A4B1B6A13F0020F2FD1FFF785
:100A5C008FFE801B41F288339842F3D903209EE02D
:100A6C00052B09D0524B1A6A22F001021A621A6A3B
:100A7C0022F004021A62E0E74D4B1A6A42F00402BB
:100A8C001A621A6A42F001021A62D6E7FFF770FE88
:100A9C000646474B1B6A13F0020F08D0FFF768FE9F
:100AAC00801B41F288339842F3D9032077E0E5B9F3
:100ABC00E369002B72D03E4A526802F00C02082AFD
:100ACC0056D0022B17D03B4B00221A66FFF750FE74
:100ADC000446374B1B6813F0007F47D0FFF748FEE6
:100AEC00001B0228F5D9032059E0314AD36923F0C1
:100AFC008053D361DCE72F4B00221A66FFF738FED8
:100B0C0005462B4B1B6813F0007F06D0FFF730FE19
:100B1C00401B0228F5D9032041E0236AB3F5803F3E
:100B2C001AD023494B6823F47413226A606A024377
:100B3C0013434B601F4B01221A66FFF719FE044644
:100B4C001B4B1B6813F0007F0ED1FFF711FE001B2F
:100B5C000228F5D9032022E0154A536823F4003308
:100B6C00A1680B435360DCE7002018E0002016E07E
:100B7C00012B16D00E4B5B6803F48031226A914234
:100B8C0011D103F47013626A93420ED1002006E077
:100B9C0001207047012002E0012000E0002002B09B
:100BAC0070BD0120FBE70120F9E70120F7E700BF4A
:100BBC000010024000004242014B0122DA647047EF
:100BCC00000042420F4B5B6803F00C02082A01D074
:100BDC000D487047C3F383420C49885C13F4803F83
:100BEC000BD0084B5B68C3F34043094AD35C064AFD
:100BFC0002FB00F0B0FBF3F07047064B03FB00F078
:100C0C00704700BF0010024000127A0050400008EC
:100C1C004C40000800093D00002800F0A08070B591
:100C2C000D460446524B1B6803F007038B420BD254
:100C3C004F4A136823F007030B431360136803F048
:100C4C0007038B4240F08D80236813F0020F17D0FE
:100C5C0013F0040F04D0474A536843F4E063536025
:100C6C00236813F0080F04D0424A536843F46053CE
:100C7C005360404A536823F0F003A1680B43536060
:100C8C00236813F0010F31D06368012B20D0022BA5
:100C9C0025D0384A126812F0020F64D035494A68E0
:100CAC0022F0030213434B60FFF762FD0646314B03
:100CBC005B6803F00C036268B3EB820F16D0FFF78E
:100CCC0057FD801B41F288339842F0D9032045E050
:100CDC00284A126812F4003FE0D101203EE0254A78
:100CEC00126812F0007FD9D1012037E0204B1B682D
:100CFC0003F00703AB420AD91D4A136823F007031C
:100D0C002B431360136803F00703AB422DD1236808
:100D1C0013F0040F06D0174A536823F4E063E1681C
:100D2C000B435360236813F0080F07D0114A536824
:100D3C0023F46053216943EAC1035360FFF742FF78
:100D4C000C4B5B68C3F303130B4AD35CD8400B4BBF
:100D5C0018600B4B1868FFF7C7FC002070BD012012
:100D6C0070470120FAE70120F8E70120F6E700BF01
:100D7C0000200240001002406040000808000020E3
:100D8C00040000207047000008B5064B9B6813F068
:100D9C00800F00D108BDFFF7F5FF024B80229A723D
:100DAC00F8E700BF0010024070B582B0044603683B
:100DBC0013F0010F36D03F4BDB6913F0805F49D144
:100DCC003C4BDA6942F08052DA61DB6903F0805304
:100DDC000193019B0125384B1B6813F4807F3BD09A
:100DEC00344B1B6A13F4407313D0626802F44072E4
:100DFC009A420ED02F4A136A23F440702F490126D1
:100E0C00C1F840640026C1F84064106213F0010F71
:100E1C0036D1284A136A23F4407361680B4313627A
:100E2C00002D3ED1236813F0020F06D0214A5368DF
:100E3C0023F44043A1680B435360236813F0100F55
:100E4C0034D01C4A536823F48003E1680B4353608D
:100E5C0000202CE00025BEE7174A136843F480738A
:100E6C001360FFF785FC0646134B1B6813F4807F59
:100E7C00B6D1FFF77DFC801B6428F5D9032016E062
:100E8C00FFF776FC06460B4B1B6A13F0020FC0D122
:100E9C00FFF76EFC801B41F288339842F3D9032094
:100EAC0005E0D36923F08053D361BBE7002002B087
:100EBC0070BD00BF001002400070004000004242B4
:100ECC0070B582B00024A446A1E07E4DAB4214D094
:100EDC000CD8A5F58015AB420FD005F57025AB42AB
:100EEC000BD0A5F58015AB4210D106E0764DAB4288
:100EFC0003D005F58035AB4208D18B68002B50D060
:100F0C00012B49D04261082400E0CC68BEF1FF0FF0
:100F1C0049D806464FEA8C0233680F25954023EAE0
:100F2C00050304FA02F2134333604B6813F0805F3D
:100F3C006BD0664B9A6942F001029A619B6903F08F
:100F4C0001030193019B4FEA9C02951C604B53F8E3
:100F5C0025600CF00305AD000F23AB4026EA030619
:100F6C005C4B984226D003F58063984200F08C804D
:100F7C0003F58063984200F0898003F58063984202
:100F8C0016D0042317E0CC680434BFE7CC680834CF
:100F9C00BCE7CC680C34B9E702610824B6E700243E
:100FAC00B4E70424B2E7061DACF108029200B3E7E3
:100FBC00032300E00023AB4033430232444D45F899
:100FCC0022304B6813F4801F62D0434A936843EA83
:100FDC000E0393604B6813F4001F5FD03E4AD36836
:100FEC0043EA0E03D3604B6813F4003F5CD03A4ADB
:100FFC00536843EA0E0353604B6813F4803F59D097
:10100C00354A136843EA0E0313600CF1010C0B68AC
:10101C0033FA0CF254D0012202FA0CF203EA020E5B
:10102C0032EA0303F1D14B68122B3FF64EAF122B71
:10103C003FF66CAF01A555F823F000BF070F000871
:10104C00170F0008990F0008AB0F0008190F0008C4
:10105C00190F0008190F0008190F0008190F0008C4
:10106C00190F0008190F0008190F0008190F0008B4
:10107C00190F0008190F0008190F0008190F0008A4
:10108C00930F00089F0F0008012394E7022392E7B7
:10109C00114A936823EA0E0393609BE70E4AD368C8
:1010AC0023EA0E03D3609EE70B4A536823EA0E0330
:1010BC005360A1E7084A136823EA0E031360A4E700
:1010CC0002B070BD00002210000031100010024070
:1010DC00000001400008014000040140002808DB2A
:1010EC000901C9B200F1604000F5614080F80013BD
:1010FC00704700F00F000901C9B2014B1954704739
:10110C0014ED00E000B500F00700C0F1070CBCF1D5
:10111C00040F28BF4FF0040C031D062B0FD9C31E60
:10112C004FF0FF3E0EFA0CF021EA000199400EFA46
:10113C0003FE22EA0E0241EA02005DF804FB0023E2
:10114C00EEE70000074AD36823F4E0631B041B0C92
:10115C00000200F4E060034343F0BF6343F4003348
:10116C00D360704700ED00E010B50446054BD8681D
:10117C00C0F30220FFF7C6FF01462046FFF7AEFF83
:10118C0010BD00BF00ED00E0002807DB00F01F02DF
:10119C00400901239340024A42F82030704700BFB7
:1011AC0000E100E00138B0F1807F0BD24FF0E0237A
:1011BC005861054AF02182F823100020986107221B
:1011CC001A6170470120704700ED00E038B512F449
:1011DC00804F44D00468B4F850309BB291F800C0F2
:1011EC0003EBCC03023304EB4304B4F80044C4F324
:1011FC0009048B69A34228D31B1B8B618B697BB9B8
:10120C00056835F82C309BB223F4804323F070032F
:10121C0083F4005343F4004343F0800325F82C304F
:10122C0012F0400F0ED002680D7832F825309BB2C8
:10123C0023F4E04323F0700343F4004343F0C00372
:10124C0022F8253024B9204638BD00238B61D5E720
:10125C0023460A894969006801F04DFFF3E70468E9
:10126C00B4F850309BB291F800C003EBCC030633BA
:10127C0004EB4304B4F80044C4F309048B69A3429F
:10128C002FD31B1B8B618B697BB9056835F82C3010
:10129C009BB223F4804323F0700383F4005343F494
:1012AC00004343F0800325F82C3012F0400F0FD18F
:1012BC00026891F800C032F82C309BB223F4E04362
:1012CC0023F0700343F4004343F0C00322F82C30A6
:1012DC00002CB8D023464A894969006801F00BFFFD
:1012EC00B1E700238B61CEE738B500286ED00446F9
:1012FC0090F89132A3B1032384F8913200236371E7
:10130C00206800F08BFF234653F8040B0ECB00F043
:10131C0075FF50B1022384F891320125284638BD5F
:10132C0080F8903201F0C4FFE5E70021206800F05E
:10133C007FFF034608B9024615E0022384F8913278
:10134C000125EBE702EB820104EBC101012048749B
:10135C000A740020C87408624862013202EB8201F0
:10136C00C9006050D2B220799042EBD816E003EB62
:10137C00830204EBC202002182F8511182F8503131
:10138C0082F85311C2F86011C2F8641103EB8302A6
:10139C0004EBC202C2F868110133DBB29842E6D802
:1013AC00234653F8040B0ECB00F044FF054620B146
:1013BC00022384F891320125B0E7002363730123E3
:1013CC0084F89132206801F094FAA7E70125A5E78B
:1013DC0038B590F89032012B11D00446012580F8D5
:1013EC009052006800F011FF2946204602F061F887
:1013FC00206801F07CFA002084F8900238BD0220AD
:10140C00FCE770B505460C46164612F0400F00F08E
:10141C000E810268B2F850309BB2097803EBC1031D
:10142C00023302EB4302B2F80024C2F30902A369AF
:10143C0093424ED99B1AA361A369002B66D16378A2
:10144C00002B49D12B68B3F8502092B2134403EB14
:10145C000113B3F80424C2F30902A3F80424B3F86B
:10146C0004246FEA42426FEA524292B2A3F8042477
:10147C002B686278002A3CD1B3F8502092B2134406
:10148C00227803EB0213B3F80C24C2F30902A3F87D
:10149C000C24B3F80C246FEA42426FEA524292B227
:1014AC00A3F80C242178284601F036FF16F4804F5F
:1014BC0041D02A68217832F821309BB223F4E043E2
:1014CC0023F0700343F4404343F0800322F82130AF
:1014DC0031E00023A361AFE7012BC9D12B68B3F82E
:1014EC00502092B2134403EB01130022A3F80424FE
:1014FC00BEE7012AD6D1B3F8502092B21344227819
:10150C0003EB02130022A3F80C24CBE716F4804F54
:10151C000DD0286830F821309BB223F4E04323F03F
:10152C00700343F4404343F0800320F8213094F8D7
:10153C002430012B12D02A68217832F821309BB24A
:10154C0023F4E04323F0400383F0300343F40043DF
:10155C0043F0800322F82130002070BD63691344EE
:10156C006361E3691344E361216A2369994224D3DB
:10157C00C91A21626278002A44D12A68B2F8501044
:10158C0089B20A44217802EB0112B2F80414C1F3B7
:10159C000901A2F804143E2B1BD9580913F01F0F94
:1015AC0000D10138B2F8041489B2800280B2014330
:1015BC0041F40041A2F8041426E021B9002384F878
:1015CC0024301346D6E7002384F8243023620B46DC
:1015DC00D0E74BB9B2F804146FEA41416FEA5141BC
:1015EC0089B2A2F804140FE0590813F0010F00D0CF
:1015FC000131B2F8040480B2890289B20143A2F825
:10160C00041401E0012A06D09BB222896169286882
:10161C0001F077F98FE72A68B2F8501089B20A44C2
:10162C00217802EB011299B2A2F80414ECE70268DB
:10163C00B2F850309BB2097803EBC103063302EBCE
:10164C004302B2F80024C2F30902A36993424FD3B8
:10165C009B1AA361A369002B67D16378002B4AD135
:10166C002B68B3F8502092B2134403EB0113B3F878
:10167C000424C2F30902A3F80424B3F804246FEA87
:10168C0042426FEA524292B2A3F804242B68627869
:10169C00002A3DD1B3F8502092B21344227803EBC8
:1016AC000213B3F80C24C2F30902A3F80C24B3F808
:1016BC000C246FEA42426FEA524292B2A3F80C2415
:1016CC002178284601F028FE16F4804F7FF433AFC2
:1016DC002A68217832F821309BB223F4E04323F0BE
:1016EC00700343F4404343F0800322F8213022E797
:1016FC000023A361AEE7012BC8D12B68B3F85020AF
:10170C0092B2134403EB01130022A3F80424BDE7A7
:10171C00012AD5D1B3F8502092B21344227803EBAE
:10172C0002130022A3F80C24CAE716F4804F0DD143
:10173C00286830F821309BB223F4E04323F0700387
:10174C0043F4404343F0800320F8213094F82430D4
:10175C00012B7FF4F0AE636913446361E3691344B6
:10176C00E361216A2369994224D3C91A21622A6848
:10177C006178002943D1B2F8501089B20A4421781B
:10178C0002EB0112B2F80C14C1F30901A2F80C140B
:10179C003E2B1BD9580913F01F0F00D10138B2F89A
:1017AC000C1489B2800280B2014341F40041A2F8CA
:1017BC000C1426E021B9002384F824301346D6E714
:1017CC000023236284F824300B46D0E74BB9B2F8DF
:1017DC000C146FEA41416FEA514189B2A2F80C1422
:1017EC000FE0590813F0010F00D00131B2F80C04CE
:1017FC0080B2890289B20143A2F80C1401E00129DC
:10180C0006D09BB262896169286801F07AF892E689
:10181C00B2F8501089B20A44217802EB011299B245
:10182C00A2F80C14EDE72DE9F04105462868B0F854
:10183C00443013F4004F00F09D82B0F84440A3B242
:10184C0014F00F0440F0DE8013F0100F6BD00388FF
:10185C009AB213F4006F40F0998012F4004FE5D067
:10186C00038823F070031B051B0D43F080030380DA
:10187C002868B0F850309BB295F8502103EBC203A6
:10188C00063300EB4303B3F80034C3F30903C5F884
:10189C006C318BB1D5F8641171B1B5F8562101F0EA
:1018AC002AFCD5F86431D5F86C211344C5F86431A1
:1018BC000021284601F024FD2A68138899B213F4FC
:1018CC00006FB3D101F44051B1F5405FAED0B2F826
:1018DC0050309BB21A44B2F80C34C3F30903A2F88B
:1018EC000C34D5F860313E2B73D9590913F01F0F06
:1018FC0000D10139B2F80C349BB2890289B20B4386
:10190C0043F40043A2F80C342A6813889BB223F4E6
:10191C00804323F0700383F4405343F4004343F0BB
:10192C008003138082E703889BB223F4E14323F006
:10193C0070036FEA43436FEA53439BB203802A68F8
:10194C00B2F850309BB2297C03EBC103023302EB9B
:10195C004302B2F80034C3F30903EB626A6A1A4417
:10196C006A620021284601F0D7FC6B7B002B3FF408
:10197C005DAFAB6A002B7FF459AF6B7B2A6843F0E9
:10198C008003A2F84C3000236B734FE7B0F8503053
:10199C009BB295F8502103EBC203063300EB4303D3
:1019AC00B3F80034C3F30903C5F86C31B5F856210C
:1019BC0005F5267101F09FFB2A68138823F070034C
:1019CC001B051B0D43F080031380284601F090FC8F
:1019DC002CE74BB9B2F80C346FEA43436FEA53432C
:1019EC009BB2A2F80C348FE7590813F0010F00D00A
:1019FC000131B2F80C3498B28B029BB20343A2F8BB
:101A0C000C3481E730F824309EB213F4004F50D1DF
:101A1C0016F0800F3FF40AAF04EB8401C9001031BB
:101A2C0029442A6832F824309BB223F4E14323F092
:101A3C0070036FEA43436FEA53439BB222F824309E
:101A4C0004EB840305EBC303DB7C012B00F0F28079
:101A5C0016F4807F40F089812868B0F850309BB232
:101A6C0004EB840205EBC202167C03EBC6030233C3
:101A7C0000EB4303B3F80034C3F30903621C02EB1D
:101A8C00820255F832209A4240F25281671C07EBD1
:101A9C008707D21A45F83720621C02EB820255F8F0
:101AAC003220002A40F04B813146284601F034FCAC
:101ABC00BCE630F8243023F070031B051B0D43F0FB
:101ACC00800320F8243004EB8401C90001F5A871CF
:101ADC0005EB010804EB840305EBC30393F85C31BD
:101AEC00002B42D12868B0F850309BB204EB840232
:101AFC0005EBC20292F8502103EBC203063300EB54
:101B0C004303B3F80074C7F3090717BB04EB840352
:101B1C0005EBC303D3F86C213A44C3F86C21D3F81A
:101B2C0064213A44C3F86421D3F868313BB104EB27
:101B3C00840305EBC303D3F860319F4275D204EBE9
:101B4C00840305EBC30393F85011284601F0D8FB2E
:101B5C005EE704EB840105EBC1013B46B1F856216D
:101B6C00D1F8641101F0C7FAD0E704EB840305EB5C
:101B7C00C30393F85331022B35D0296804EB84024C
:101B8C0005EBC20292F8500131F820309BB223F4DD
:101B9C00E04323F0700343F4004343F0C00321F807
:101BAC002030286892F8502130F8223013F4804FFE
:101BBC0020D0B0F850309BB203EBC203023300EBE1
:101BCC004303B3F80074C7F30907002F9ED004EB4E
:101BDC00840105EBC1013B46B1F85821D1F86411E1
:101BEC0001F089FA92E7324641462846FFF7EEFAB1
:101BFC0007468BE7B0F850309BB203EBC2030633B9
:101C0C0000EB4303B3F80074C7F30907002F3FF44C
:101C1C007DAF04EB840105EBC1013B46B1F85A21C1
:101C2C00D1F8641101F067FA70E74146286800F0BA
:101C3C007BFEEDE6631C03EB8303DB000022EA5022
:101C4C0004EB840305EBC3031B7F1BB316F0400F9F
:101C5C003BD004EB840305EBC3035B7C1BBB2B6801
:101C6C00B3F8502092B2134404EB840205EBC20289
:101C7C00127C03EB0213B3F80424C2F30902A3F899
:101C8C000424B3F804246FEA42426FEA524292B23F
:101C9C00A3F8042404EB840405EBC404217C28463B
:101CAC0001F03AFBC2E5012BF4D12B68B3F85020BC
:101CBC0092B2134404EB840205EBC202127C03EBD8
:101CCC0002130022A3F80424E4E72B6804EB84023B
:101CDC0005EBC202527CD2B9B3F8502092B2134435
:101CEC0004EB840205EBC202127C03EB0213B3F883
:101CFC000C24C2F30902A3F80C24B3F80C246FEAE9
:101D0C0042426FEA524292B2A3F80C24C2E7012A73
:101D1C00C0D1B3F8502092B2134404EB840205EB0B
:101D2C00C202127C03EB02130022A3F80C24B1E7CD
:101D3C00621C02EB8202D2000027AF50ACE604EB2F
:101D4C00840205EBC202566A1E445662013404EB4F
:101D5C00840205EBC202526804EB840405EBC40454
:101D6C001344636000F0E0FD60E532462846FFF75F
:101D7C0048FB5BE50020BDE8F08190F89032012B28
:101D8C000CD010B50446012380F8903241730068E2
:101D9C0000F0A7FD002084F8900210BD02207047CF
:101DAC0010B584B00446006800F0A5FD10F4004F97
:101DBC0020D110F4806F21D110F4804F2FD110F46A
:101DCC00005F37D110F4805F3ED110F4006F40F00B
:101DDC00878010F4007F40F0AE8010F4807F27D015
:101DEC002268B2F844309BB223F480739BB2A2F801
:101DFC0044301DE02046FFF716FD19E02268B2F8CA
:101E0C0044309BB223F480639BB2A2F8443020464A
:101E1C0001F093FA00212046FFF7AFFF08E022689B
:101E2C00B2F844309BB223F480439BB2A2F8443006
:101E3C0004B010BD2268B2F844309BB223F40053B6
:101E4C009BB2A2F84430F3E72268B2F840309BB260
:101E5C0023F004039BB2A2F840302268B2F8403061
:101E6C009BB223F008039BB2A2F84030204601F04D
:101E7C0087FA2268B2F844309BB223F480539BB2A9
:101E8C00A2F84430D4E7226832F8231004AA02EBFB
:101E9C00430222F8101C0133DBB2072BF3D9226862
:101EAC00B2F840309BB243F00103A2F840302268F4
:101EBC00B2F840309BB223F001039BB2A2F8403041
:101ECC002368B3F8442012F4806FF9D0B3F844209F
:101EDC0092B222F4806292B2A3F8442000230BE069
:101EEC000023DAE7226804A901EB430131F8101C46
:101EFC0022F823100133DBB2072BF3D92268B2F896
:101F0C0040309BB243F00803A2F840302268B2F88C
:101F1C0044309BB223F400639BB2A2F84430226895
:101F2C00B2F840309BB243F00403A2F84030204694
:101F3C0001F016FA7CE72268B2F844309BB223F425
:101F4C0000739BB2A2F84430204601F0F0F96FE721
:101F5C0010B50446084611F0800F26D101F0070C8D
:101F6C000CEB8C0E4FEACE0E0EF5A87E04EB0E0198
:101F7C000CEB8C0C04EBCC0C4FF0000E8CF851E1FC
:101F8C0000F0070008700A61CB70022B1DD094F88A
:101F9C009032012B1CD0012384F89032206800F081
:101FAC005AF9002084F8900210BD01F0070C0CEBDC
:101FBC008C01C900103121440CEB8C0C04EBCC0CC3
:101FCC004FF0010E8CF811E0DAE700230B71DEE71D
:101FDC000220E9E710B504460A4611F0800F1FD124
:101FEC0001F0070000EB8003DB0003F5A873E11898
:101FFC0000EB800004EBC000002380F8513102F0AC
:10200C0007020A7094F89032012B17D0012384F840
:10201C009032206800F004FB002084F8900210BD80
:10202C0001F0070000EB8003DB001033E11800EB3C
:10203C00800004EBC00001234374E0E70220EEE7CC
:10204C0010B501F0070C0CEB8C01C90001F5A8715F
:10205C000CEB8C0E00EBCE0ECEF86421CEF8683172
:10206C000024CEF86C418EF851418EF850C10144D9
:10207C00006800F059FC204610BD38B501F0070C83
:10208C000CEB8C01C90010310CEB8C0E00EBCE0E5E
:10209C00CEF824200CF1010202EB820440F834301B
:1020AC0001258EF83450CEF8303000EBC4020024F9
:1020BC0054608EF811508EF810C00144006800F086
:1020CC0033FC204638BD38B501F007050279AA4229
:1020DC0035D304460B4611F0800F1ED101EB810164
:1020EC00C90001F5A871014403EB830300EBC303A2
:1020FC00002283F8512101238B700D7094F89032DB
:10210C00012B1ED0012384F89032206800F073FB61
:10211C007DB1002084F8900238BD05EB8501C90023
:10212C001031014405EB850300EBC30301225A7403
:10213C00E1E704F52671206800F0E1FBE9E70120F6
:10214C00EAE70220E8E70B46017903F00F0291421F
:10215C0034D310B5044613F0800F21D103F00702DD
:10216C0002EB8201C90001F5A871014402EB820265
:10217C0000EBC202002082F8510100228A7003F0A9
:10218C0007030B7094F89032012B19D0012384F8BB
:10219C009032206800F054FB002084F8900210BDAF
:1021AC0003F0070202EB8201C9001031014402EB7B
:1021BC00820200EBC20201205074DEE7012070475E
:1021CC000220ECE711F0800F0BD001F0070101EBBE
:1021DC008101C9001031084452B90273C380002038
:1021EC00704701EB8101C90001F5A8710844F3E7C0
:1021FC000122027303811B0C4381F0E784B004A815
:10220C0000E90E00002004B0704703460020A3F83C
:10221C0044004FF43F42A3F840207047B0F84030E0
:10222C0023F47C535B045B0CA0F840300020704717
:10223C000020704784B0844604A800E90E000123F6
:10224C00ACF840300020ACF84000ACF84400ACF8DE
:10225C00500004B0704710B5034691F800C030F838
:10226C002C2092B222F4EC4222F0700292B2C87886
:10227C00032861D8DFE800F0555C0258002048F2D2
:10228C00800E42EA0E0223F82C2091F800C033F89D
:10229C002C2092B222F4E04222F0700242EA0C02AC
:1022AC0042EA0E0223F82C200A7B002A40F0DC8044
:1022BC004A78002A51D0B3F8502092B21A440C78C4
:1022CC0002EB0412B1F806C04FEA5C0C4FEA4C0C5E
:1022DC00A2F800C40C7833F8242012F0400F0CD074
:1022EC0033F8242092B222F4E04222F0700242F43D
:1022FC00004242F0C00223F82420CA78012A1DD0E3
:10230C00097833F8212092B222F4E04222F0400204
:10231C0082F0200242F4004242F0800223F8212095
:10232C0017E142F40072AAE742F4C0620020A6E76B
:10233C0042F480620020A2E70120A0E7097833F87C
:10234C00212092B222F4E04222F0400242F40042F8
:10235C0042F0800223F82120FBE0B3F8502092B227
:10236C001A440C7802EB0412B1F806C04FEA5C0C6C
:10237C004FEA4C0CA2F808C4B3F8502092B21A449D
:10238C000C7802EB0412B2F80CC4CCF3090CA2F8D2
:10239C000CC40C693E2C39D94FEA541E14F01F0F93
:1023AC0001D10EF1FF3EB2F80CC41FFA8CFC4FEABF
:1023BC008E2E1FFA8EFE4CEA0E0C4CF4004CA2F83A
:1023CC000CC40C7833F8242012F4804F0CD033F862
:1023DC00242092B222F4E04222F0700242F44042F5
:1023EC0042F0800223F82420097869BB33F82120BD
:1023FC0092B222F4804222F0700282F4405242F4F3
:10240C00004242F0800223F82120A2E04CB9B2F83D
:10241C000C446FEA44446FEA5444A4B2A2F80C444E
:10242C00CFE74FEA540C14F0010F01D00CF1010C62
:10243C00B2F80C44A4B24FEA8C2C1FFA8CFC44EA80
:10244C000C04A2F80C44BCE733F8212092B222F41D
:10245C00804222F0700282F4005242F4004242F0B8
:10246C00800223F8212074E0CA78022A72D00C78FA
:10247C0033F8242092B222F4E24222F0700242F4A9
:10248C00004242F0800223F82420B3F8502092B28C
:10249C001A4491F800C002EB0C12B1F808C04FEAD4
:1024AC005C0C4FEA4C0CA2F800C4B3F8502092B26A
:1024BC001A4491F800C002EB0C12B1F80AC04FEAB2
:1024CC005C0C4FEA4C0CA2F808C44A78002A50D194
:1024DC000C7833F8242012F4804F0CD033F82420DD
:1024EC0092B222F4E04222F0700242F4404242F0F6
:1024FC00800223F824200C7833F8242012F0400FAB
:10250C000CD033F8242092B222F4E04222F0700274
:10251C0042F4004242F0C00223F8242091F800C09B
:10252C0033F82C2092B222F4804222F0700282F412
:10253C00405248F28004224323F82C20097833F8C7
:10254C00212092B222F4E04222F04002224323F8EE
:10255C00212010BD0C7833F8242092B222F4E042F2
:10256C0022F0700242F4014242F0800223F824204F
:10257C008BE70C7833F8242012F4804F0CD033F80E
:10258C00242092B222F4E04222F0700242F4404243
:10259C0042F0800223F824200C7833F8242012F027
:1025AC00400F0CD033F8242092B222F4E04222F0F7
:1025BC00700242F4004242F0C00223F82420CA7890
:1025CC00012A1ED00C7833F8242092B222F4E04277
:1025DC0022F0400282F0200242F4004242F08002DB
:1025EC0023F82420097833F8212092B222F4804277
:1025FC0022F0700242F4004242F0800223F82120C3
:10260C00A7E70C7833F8242092B222F4E04222F0AF
:10261C00400242F4004242F0800223F82420E1E719
:10262C000B7B002B46D14B7813B30A7830F8223051
:10263C0013F0400F0CD030F822309BB223F4E0435F
:10264C0023F0700343F4004343F0C00320F822301E
:10265C000A7830F822309BB223F4E04323F0400395
:10266C0043F4004343F0800320F8223000207047ED
:10267C000A7830F8223013F4804F0CD030F8223026
:10268C009BB223F4E04323F0700343F4404343F044
:10269C00800320F822300A7830F822309BB223F4E1
:1026AC00804323F0700343F4004343F0800320F88D
:1026BC002230DBE74B78002B4ED10A7830F82230F1
:1026CC0013F4804F0CD030F822309BB223F4E0434B
:1026DC0023F0700343F4404343F0800320F822308E
:1026EC000A7830F8223013F0400F0CD030F822303A
:1026FC009BB223F4E04323F0700343F4004343F014
:10270C00C00320F822300A7830F822309BB223F430
:10271C00E04323F0700343F4004343F0C00320F87C
:10272C0022300A7830F822309BB223F4804323F015
:10273C00700348F2800C43EA0C0320F822300A782C
:10274C0030F822309BB223F4E04323F0400343EAF9
:10275C000C0320F8223089E70A7830F8223013F481
:10276C00804F0CD030F822309BB223F4E04323F09E
:10277C00700343F4404343F0800320F822300A787E
:10278C0030F8223013F0400F0CD030F822309BB2CE
:10279C0023F4E04323F0700343F4004343F0C003FD
:1027AC0020F822300A7830F822309BB223F4E04330
:1027BC0023F0700343F4404343F0800320F82230AD
:1027CC000A7830F822309BB223F4E04323F0400324
:1027DC0048F2800C43EA0C0320F822300A7830F8D7
:1027EC0022309BB223F4804323F0700343EA0C03A2
:1027FC0020F822303AE74B788BB10A7830F8223047
:10280C009BB223F4E04323F0400383F0100343F422
:10281C00004343F0800320F82230002070470A78F0
:10282C0030F822309BB223F4804323F0700383F4FE
:10283C00805343F4004343F0800320F82230ECE74C
:10284C000B7B002B4BD14B7833B30A7830F822300A
:10285C0013F0400F0CD030F822309BB223F4E0433D
:10286C0023F0700343F4004343F0C00320F82230FC
:10287C00CB78012B33D00A7830F822309BB223F47A
:10288C00E04323F0400383F0200343F4004343F080
:10289C00800320F8223022E00A7830F8223013F43A
:1028AC00804F0CD030F822309BB223F4E04323F05D
:1028BC00700343F4404343F0800320F822300A783D
:1028CC0030F822309BB223F4804323F0700383F45E
:1028DC00405343F4004343F0800320F8223000209F
:1028EC00704711B98023A0F84C30002070470020AD
:1028FC00704700207047B0F8440080B27047002049
:10290C00704701335B0800EB420000F5806008E083
:10291C000A7891F801C042EA0C2220F8042B02310B
:10292C00013B002BF4D1704770B505460C464A7834
:10293C00012A3BD00B7B002B40F0A6828B690A69E5
:10294C00934240F284829B1A8B61B5F850309BB253
:10295C002B44217803EB0113B3F80C14C1F30901D8
:10296C00A3F80C143E2A40F27682510912F01F0F84
:10297C0000D10139B3F80C2492B2890289B20A430E
:10298C0042F40042A3F80C24227835F822309BB292
:10299C0023F4804323F0700383F4405343F4004347
:1029AC0043F0800325F82230002070BD8E69096940
:1029BC008E4200D90E46237B73B3E378022B4DD0A5
:1029CC00236A9B1B2362217835F8213013F0400FCA
:1029DC0000F0F581002A40F0E281B5F850309BB24E
:1029EC002B4403EB0113B3F80C24C2F30902A3F834
:1029FC000C243E2E40F2BA81710916F01F0F00D143
:102A0C000139B3F80C2492B2890289B20A4342F418
:102A1C000042A3F80C24CBE1B6B23346E2886169DC
:102A2C002846FFF76EFFB5F850309BB22B44227846
:102A3C0003EB0213A3F80464227835F822309BB21E
:102A4C0023F4E04323F0400383F0300343F40043CA
:102A5C0043F0800325F822300020A6E7236A994230
:102A6C0080F06681227835F822309BB223F4E04363
:102A7C0023F0700343F4014343F0800325F8223024
:102A8C00236A9B1B2362227835F8223013F0400F07
:102A9C0000F0A7806378B3BBB5F850309BB22B44E1
:102AAC0003EB0213B3F80C24C2F30902A3F80C24B1
:102ABC003E2E0FD9710916F01F0F00D10139B3F852
:102ACC000C2492B2890289B20A4342F40042A3F860
:102ADC000C241AE04EB9B3F80C246FEA42426FEAA8
:102AEC00524292B2A3F80C240FE0720816F0010FB8
:102AFC0000D00132B3F80C1489B2920292B20A439C
:102B0C00A3F80C2401E0012B30D0B3B262896169C7
:102B1C002846FFF7F6FE636933446361236A226932
:102B2C0093422DD99B1B23626378002B45D1B5F8BA
:102B3C0050309BB22B44227803EB0213B3F80424DD
:102B4C00C2F30902A3F804243E2E1DD9710916F014
:102B5C001F0F00D10139B3F8042492B2890289B253
:102B6C000A4342F40042A3F8042428E0B5F850309C
:102B7C009BB22B4403EB0213B2B2A3F80C24C4E7B0
:102B8C00002222621E46CFE74EB9B3F804246FEA46
:102B9C0042426FEA524292B2A3F804240FE0720848
:102BAC0016F0010F00D00132B3F8041489B292026E
:102BBC0092B20A43A3F8042401E0012B06D0B3B26D
:102BCC00228961692846FFF79CFE35E7B5F850303D
:102BDC009BB22B44227803EB0213B2B2A3F8042469
:102BEC00EDE76378B3BBB5F850309BB22B4403EBE5
:102BFC000213B3F80424C2F30902A3F804243E2EF2
:102C0C000FD9710916F01F0F00D10139B3F8042444
:102C1C0092B2890289B20A4342F40042A3F8042416
:102C2C001AE04EB9B3F804246FEA42426FEA5242FA
:102C3C0092B2A3F804240FE0720816F0010F00D032
:102C4C000132B3F8041489B2920292B20A43A3F887
:102C5C00042401E0012B30D0B3B2228961692846EB
:102C6C00FFF74FFE636933446361236A2269934221
:102C7C002DD99B1B23626378002B45D1B5F85030BE
:102C8C009BB22B44227803EB0213B3F80C24C2F34F
:102C9C000902A3F80C243E2E1DD9710916F01F0F42
:102CAC0000D10139B3F80C2492B2890289B20A43DB
:102CBC0042F40042A3F80C2428E0B5F850309BB243
:102CCC002B4403EB0213B2B2A3F80424C4E7002292
:102CDC0022621E46CFE74EB9B3F80C246FEA42428B
:102CEC006FEA524292B2A3F80C240FE0720816F06D
:102CFC00010F00D00132B3F80C1489B2920292B2D7
:102D0C000A43A3F80C2401E0012B06D0B3B262896C
:102D1C0061692846FFF7F5FD8EE6B5F850309BB299
:102D2C002B44227803EB0213B2B2A3F80C24EDE788
:102D3C00217835F8212092B222F4E24222F070027E
:102D4C0042F4004242F0800225F82120B5F85020D0
:102D5C0092B22A44217802EB01129BB2A2F80434FD
:102D6C00228961692846FFF7CCFD65E64EB9B3F8B8
:102D7C000C246FEA42426FEA524292B2A3F80C243E
:102D8C0016E0720816F0010F00D00132B3F80C14E3
:102D9C0089B2920292B20A43A3F80C2408E0B5F867
:102DAC0050309BB22B4403EB0113B2B2A3F80C24AA
:102DBC00B3B2628961692846FFF7A3FD3CE6B2BB5A
:102DCC00B5F850309BB22B4403EB0113B3F8042439
:102DDC00C2F30902A3F804243E2E0FD9710916F090
:102DEC001F0F00D10139B3F8042492B2890289B2C1
:102DFC000A4342F40042A3F8042421E04EB9B3F88C
:102E0C0004246FEA42426FEA524292B2A3F80424BD
:102E1C0016E0720816F0010F00D00132B3F804145A
:102E2C0089B2920292B20A43A3F8042408E0B5F8DE
:102E3C0050309BB22B4403EB0113B2B2A3F8042421
:102E4C00B3B2228961692846FFF75BFDF4E50022E5
:102E5C008A611A4679E54AB9B3F80C246FEA424202
:102E6C006FEA524292B2A3F80C248DE5510812F08D
:102E7C00010F00D00131B3F80C2492B2890289B24F
:102E8C000A43A3F80C247FE5CB78022B4DD0012B01
:102E9C0040F02F8189692369994240F2E680C91A72
:102EAC00A161F2B9B5F8502092B22A44217802EB14
:102EBC000112B2F80414C1F30901A2F804143E2B58
:102ECC0040F2D780580913F01F0F00D10138B2F827
:102EDC00041489B2800280B2014341F40041A2F88B
:102EEC0004146278002A40F0F680B5F8502092B2B3
:102EFC002A44217802EB0112B2F80C14C1F3090137
:102F0C00A2F80C143E2B40F2CD80590913F01F0F80
:102F1C0000D10139B2F80C349BB2890289B20B434F
:102F2C0043F40043A2F80C342EE5F2B9B0F850305B
:102F3C009BB203440A7803EB0213B3F80424C2F3E4
:102F4C000902A3F804240A693E2A31D9510912F066
:102F5C001F0F00D10139B3F8042492B2890289B24F
:102F6C000A4342F40042A3F804246378002B51D1A5
:102F7C00B5F850309BB22B44227803EB0213B3F814
:102F8C000C24C2F30902A3F80C2422693E2A28D986
:102F9C00510912F01F0F00D10139B3F80C2492B271
:102FAC00890289B20A4342F40042A3F80C2433E0AC
:102FBC004AB9B3F804246FEA42426FEA524292B221
:102FCC00A3F80424D1E7510812F0010F00D001310D
:102FDC00B3F8042490B28A0292B20243A3F80424F8
:102FEC00C3E74AB9B3F80C246FEA42426FEA524283
:102FFC0092B2A3F80C240FE0510812F0010F00D08C
:10300C000131B3F80C2490B28A0292B20243A3F8B5
:10301C000C2401E0012B1DD0E369002B3FF4B4AC70
:10302C00227835F8221044F2400303EA01008B4366
:10303C0002D000287FF4A8AC35F822309BB223F4E0
:10304C00E04323F0700343F4004343F0C00325F83E
:10305C00223099E4B5F850309BB22B44227803EB24
:10306C000213228AA3F80C24D6E70023A3610B4693
:10307C0017E74BB9B2F804146FEA41416FEA5141BA
:10308C0089B2A2F804142CE7590813F0010F00D0F0
:10309C000131B2F8040480B2890289B20143A2F86A
:1030AC0004141EE74BB9B2F80C346FEA43436FEAD1
:1030BC0053439BB2A2F80C3466E4590813F0010F89
:1030CC0000D00131B2F80C3498B28B029BB203439E
:1030DC00A2F80C3458E4012A7FF456ACB5F8502011
:1030EC0092B22A44217802EB01129BB2A2F80C3462
:1030FC004AE4012059E410B45C0800EB420000F5EE
:10310C00806007E030F8042B0A70C2F307224A7083
:10311C000231013C002CF5D113F0010F01D00388D2
:10312C000B7010BC7047704708B500220B490C4857
:10313C0000F0C0F948B90B49094800F0D2F938B988
:10314C00074800F0D5F930B908BDFDF793F8F2E760
:10315C00FDF790F8F4E7FDF78DF8F5E74000002057
:10316C00B40100202C01002012230B800048704772
:10317C002C00002004230B800048704728000020FE
:10318C00002393421ED200B510E00CF1370C01F86D
:10319C0013C000014FEA430C0CF1010C4FF0000E70
:1031AC0001F80CE00133DBB2934209D24FEA107CF8
:1031BC00B0F1204FE9D20CF1300C01F813C0E8E764
:1031CC005DF804FB7047000038B50B4BD3F8E807EB
:1031DC00D3F8EC47D3F8F037C01800D138BD074D01
:1031EC0008222946FFF7CCFF042205F110012046E6
:1031FC00FFF7C6FFF2E700BF00F0FF1F0E00002034
:10320C0008B51A230B80FFF7DFFF014808BD00BF8C
:10321C000C00002008B50A4628B90549054800F0FD
:10322C00BEFD034808BD0249024800F0B8FDF8E7AE
:10323C00780400207040000810B50A46034C214663
:10324C00034800F0ACFD204610BD00BF7804002000
:10325C008840000808B50A4628B90549054800F019
:10326C009EFD034808BD0249024800F098FDF8E7AE
:10327C00780400209C40000808B50A4628B9054986
:10328C00054800F08CFD034808BD0249024800F0D7
:10329C0086FDF8E778040020A8400008022805D82D
:1032AC00DFE800F00504020001207047022070479F
:1032BC0002680E4B9A4200D0704700B583B003F5FC
:1032CC00DA33DA6942F40002DA61DB6903F40003F1
:1032DC000193019B002211461420FDF745FF142099
:1032EC00FDF752FF03B05DF804FB00BF005C00402B
:1032FC0008B500F52671D0F8D40200F011F908BD1C
:10330C0008B501EB810300EBC303D3F86421D0F8BB
:10331C00D40200F032F908BD08B501EB810300EBD3
:10332C00C3035A6AD0F8D40200F06DF908BD08B591
:10333C00D0F8D40200F00EFA08BD10B5044683791B
:10334C00022B09D10121D4F8D40200F0ECF9D4F805
:10335C00D40200F0C0F910BDFCF78CFFF2E70000BE
:10336C0010B50446D0F8D40200F0E0F9A37A23B1EA
:10337C00024A136943F00603136110BD00ED00E02F
:10338C0008B5D0F8D40200F0DAF908BD10B504463F
:10339C001648C0F8D442C4F8C002154B0360082389
:1033AC0003710223837100238372C3720373FDF7CD
:1033BC009BFFB8B9182300221146D4F8C002FEF7BF
:1033CC0001FF582300228021D4F8C002FEF7FAFE38
:1033DC004FF4807300228121D4F8C002FEF7F2FE74
:1033EC00002010BDFCF746FFE4E700BF8C06002070
:1033FC00005C004008B5D0F8C002FDF7E9FFFFF70C
:10340C004DFF08BD08B594461A466346D0F8C00275
:10341C00FEF79EFDFFF742FF08BD08B5D0F8C002CD
:10342C00FEF7D8FDFFF73AFF08BD08B5D0F8C0028B
:10343C00FEF749FEFFF732FF08BD08B5D0F8C00211
:10344C00FEF781FEFFF72AFF08BDD0F8C03211F05D
:10345C00800F08D101F07F0101EB810103EBC10367
:10346C0093F85201704701F07F0101EB810103EBEE
:10347C00C103987C704708B5D0F8C002FEF77DFCFC
:10348C00FFF70CFF08BD08B5D0F8C002FEF7F5FD3C
:10349C00FFF704FF08BD08B5D0F8C002FEF7D0FD59
:1034AC00FFF7FCFE08BD00000048704778060020BE
:1034BC007047704798B108B50346D0F8B40210B104
:1034CC000020C3F8B40209B1C3F8B012012183F88B
:1034DC009C121A701846FFF759FF002008BD0220F5
:1034EC00704719B1C0F8B412002070470220704721
:1034FC0008B5FFF77FFF002008BD08B5D0F8B4323F
:10350C002BB11B68984700B908BD0220FCE70220CC
:10351C00FAE708B5D0F8B4325B689847002008BDCC
:10352C0038B5044600F52A75284600F035F9012314
:10353C00C4F89432B4F8AE32C4F8983294F8A812A5
:10354C0001F01F03012B08D0022B0BD07BB92946AD
:10355C00204600F0CFFA002038BD2946204600F066
:10356C00FDFAF8E72946204600F028FBF3E701F0C6
:10357C0080012046FFF759FFEDE738B504460D46AC
:10358C0091BB1346D0F89422032A03D0052A24D0E9
:10359C00084633E0D0F86011D0F8642191420DD97F
:1035AC00891AC0F860118A4206D98AB21946204697
:1035BC0000F027FC284621E092B2F7E7D0F8B432AD
:1035CC001B691BB190F89C22032A04D0204600F002
:1035DC0020FC284612E09847F8E70021C0F8941226
:1035EC00FFF723FF284609E0D0F8B4329B6933B1CA
:1035FC0090F89C22032A04D19847002038BD022061
:10360C00FCE70220FAE738B504460D46002953D1F1
:10361C001346D0F89422022A0CD0042A00D01AB9EE
:10362C0080212046FFF701FF94F8A032012B3ED0F9
:10363C00284638BD026A416A8A421BD8C269B2FB6D
:10364C00F1F301FB13232BB9914203D8D0F8983234
:10365C009A421CD3D4F8B432DB681BB194F89C2288
:10366C00032A21D080212046FFF7DFFE204600F000
:10367C00DBFBD9E7521A026292B2194600F0B9FB91
:10368C0000231A4619462046FFF705FFCCE7002217
:10369C00114600F0AEFB0021C4F898120B460A4606
:1036AC002046FFF7F8FEBFE720469847DAE70023ED
:1036BC0084F8A0322846BCE7D0F8B4325B6933B149
:1036CC0090F89C22032A04D198470020B1E70220ED
:1036DC00AFE70220ADE770B5044640230022114647
:1036EC00FFF790FE0125C4F858514026C4F86461D8
:1036FC003346002280212046FFF784FEA5616662D6
:10370C0084F89C520023C4F894326360C4F8A43249
:10371C00D4F8B8322BB1D4F8B4325B68002120460F
:10372C009847002070BD01740020704790F89C32BF
:10373C0080F89D32042380F89C320020704790F86A
:10374C009C32042B01D00020704790F89D3280F8F9
:10375C009C32F8E708B590F89C32032B01D000207E
:10376C0008BDD0F8B432DB69002BF8D09847F6E7E7
:10377C000346002002E00130C0B201331A78002A5F
:10378C00F9D1704708B54B88012B00D008BDC0F8A3
:10379C00A43200F03EFBF9E70B7803704B784370D2
:1037AC008B78CA7803EB022343800B794A7903EBBD
:1037BC00022383808B79CA7903EB0223C380704781
:1037CC0010B504468021FFF730FE00212046FFF79C
:1037DC002CFE10BD30B583B005460C460023ADF869
:1037EC0006304A88130A013B062B00F2A480DFE85E
:1037FC0003F004182CA2A2869300D0F8B0321B68F8
:10380C000DF10601007C9847BDF806201AB1E3883B
:10381C00002B40F09480E388002B00F09A8003B0DA
:10382C0030BD037C43B9D0F8B4329B6A0DF106006D
:10383C00984702234370E7E7D0F8B432DB6A0DF106
:10384C000600984702234370DEE7D2B2052A52D80D
:10385C00DFE802F003101D2A3744D0F8B0325B6861
:10386C0023B10DF10601007C9847CDE72146FFF707
:10387C00A7FFD4E7D0F8B0329B6823B10DF1060155
:10388C00007C9847C0E72146FFF79AFFC7E7D0F8BE
:10389C00B032DB6823B10DF10601007C9847B3E729
:1038AC002146FFF78DFFBAE7D0F8B0321B6923B180
:1038BC000DF10601007C9847A6E72146FFF780FF33
:1038CC00ADE7D0F8B0325B6923B10DF10601007C95
:1038DC00984799E72146FFF773FFA0E7D0F8B0327D
:1038EC009B6923B10DF10601007C98478CE72146BA
:1038FC00FFF766FF93E72146FFF762FF8FE7037C34
:10390C0033B9D0F8B4325B6B0DF1060098477BE706
:10391C002146FFF755FF82E7037C43B9D0F8B43258
:10392C001B6B0DF106009847072343706CE721468B
:10393C00FFF746FF73E72146FFF742FF6FE79A4216
:10394C0028BF1A46ADF806200146284600F044FA76
:10395C0061E7284600F05DFA61E738B504468B88CC
:10396C00F3B9CB88E3B94B887F2B19D803F07F05CB
:10397C0090F89C32032B0CD080F89E522946FFF70E
:10398C007AFD204600F045FA35B1022384F89C32CA
:10399C0009E0FFF715FF06E0012384F89C3202E0F2
:1039AC002046FFF70DFF38BD38B504460D46897823
:1039BC00284B197001290ED890F89C32022B0ED08E
:1039CC00032B21D02946FFF7FBFE224B197820460A
:1039DC00FFF79FFD02E02946FFF7F2FE38BD81B1EB
:1039EC004160032380F89C32FFF787FD022803D047
:1039FC00204600F00EFAF1E729462046FFF7E0FEDC
:103A0C00ECE700F006FAE9E789B1436899421DD06A
:103A1C00D9B2FFF77EFD0F4B197861602046FFF796
:103A2C006CFD02280DD0204600F0F3F9D6E70223F6
:103A3C0080F89C324160FFF76CFD204600F0E9F9FC
:103A4C00CCE729462046FFF7BBFEC7E700F0E1F9BB
:103A5C00C4E700BF6409002008B5CB88012B0AD14C
:103A6C0090F89C32022B09D9032B11D10122011D94
:103A7C0000F0B2F901E0FFF7A3FE08BD5BB23BB169
:103A8C000146002341F8083F012200F0A5F9F4E7B4
:103A9C00FFF796FEF1E708B590F89C32013B022B3C
:103AAC0012D8CB88022B0CD10123C360D0F8A432DE
:103ABC000BB10323C360022200F10C0100F08CF95E
:103ACC0008BDFFF77DFEFBE7FFF77AFEF8E708B5C8
:103ADC0090F89C32013B022B09D84B88012B00D06B
:103AEC0008BD0023C0F8A43200F093F9F8E7FFF703
:103AFC0067FEF5E708B50B7803F06003202B05D0C3
:103B0C00402B03D043B1FFF75BFE03E0D0F8B43297
:103B1C009B689847002008BD4B78092B1BD8DFE821
:103B2C0003F011171A141A08051A0E0BFFF752FEA0
:103B3C00F0E7FFF712FFEDE7FFF736FFEAE7FFF7D5
:103B4C008BFFE7E7FFF7A7FFE4E7FFF71BFEE1E7D3
:103B5C00FFF7BDFFDEE7FFF733FEDBE738B50546C1
:103B6C000C460B7803F06003202B06D0402B04D0BE
:103B7C001BB1FFF725FE002038BD95F89C32013BA8
:103B8C00022B16D82379012B0ED8D5F8B4329B68AA
:103B9C00214628469847E388002BECD10028EAD12F
:103BAC00284600F036F9E6E721462846FFF708FEDE
:103BBC00E1E721462846FFF703FEDCE770B5054632
:103BCC008B880C7804F06004202C07D0DAB2402CDF
:103BDC0004D05CB1FFF7F4FD002405E0D5F8B43255
:103BEC009B68284698470024204670BD202C09D09D
:103BFC004E78012E33D0032E0AD0002E55D0FFF76D
:103C0C00DFFDF1E7D0F8B4329B6898470446EBE748
:103C1C0090F89C32022B04D0032B11D0FFF7D0FD6F
:103C2C00E2E70AB1802A03D12846FFF7C9FDDBE79A
:103C3C001146FFF7FAFB80212846FFF7F6FBD3E786
:103C4C004B8823B91AB1802A01D0CB881BB12846E6
:103C5C0000F0DFF8C8E71146FFF7E7FBF7E790F84D
:103C6C009C32022B04D0032B11D0FFF7A9FDBBE72C
:103C7C000AB1802A03D12846FFF7A2FDB4E711460A
:103C8C00FFF7D3FB80212846FFF7CFFBACE74B882F
:103C9C00002BA9D112F07F0F03D1284600F0B9F800
:103CAC00A2E71146FFF7C9FBF7E790F89C02022840
:103CBC0006D0032829D02846FFF782FD344693E727
:103CCC000AB1802A13D113F0800F15D102F07F02B4
:103CDC0002EB8202910001F5A87129440431002302
:103CEC000B600222284600F077F834467CE7284621
:103CFC00FFF766FD344677E702F07F0202EB8202A3
:103D0C009100103129440431E9E75BB2002B1FDB31
:103D1C0002F00F0000EB800005EB8000D0F858019A
:103D2C0020B3002B27DB02F07F0303EB83039C0003
:103D3C0004F5A8742C4404340AB1802A24D100233D
:103D4C00236002222146284600F046F834464BE711
:103D5C0002F00F0000EB800005EB8000806900286A
:103D6C00DFD12846FFF72CFD34463DE72846FFF708
:103D7C0027FD344638E702F07F0303EB83039C00F6
:103D8C0010342C440434D7E711462846FFF75DFB6A
:103D9C0010B101232360D4E700232360D1E7D0B115
:103DAC0070B50D4616460446FFF7E2FC431C5B005B
:103DBC009BB233802B7003236B70022307E001341A
:103DCC005A1CD2B2E8540233DBB20021A954207839
:103DDC000028F4D170BD704708B513460222C0F814
:103DEC009422C36103620A460021FFF74CFB0020BA
:103DFC0008BD08B513460A460021FFF744FB002016
:103E0C0008BD08B513460A460021FFF744FB002005
:103E1C0008BD08B50423C0F8943200231A4619468D
:103E2C00FFF731FB002008BD08B50523C0F894321C
:103E3C0000231A461946FFF72EFB002008BD000090
:103E4C0022230380004870470801002022230380AE
:103E5C0000487047E400002022230380004870478C
:103E6C00C0000020D0F8B832002018737047000052
:103E7C000A23038000487047A800002070B582B068
:103E8C00D0F8B8520023ADF806300C7814F060046A
:103E9C0025D0202C72D14B78023B092B1BD8DFE8A4
:103EAC0003F014091A1A1A1A1A1A0F058B782B60B8
:103EBC00002466E001222946FFF78EFF002460E013
:103ECC004B881B0A6B6000245BE00122291DFFF765
:103EDC0083FF002455E0FFF773FC022451E04E7879
:103EEC000B2E47D8DFE806F00646464646461546F2
:103EFC0046462D3B90F89C32032B03D0FFF760FC19
:103F0C0002243EE002220DF10601FFF765FF344664
:103F1C0037E04B881B0A222B09D0212B0DD1CA88E4
:103F2C00092A28BF09221849FFF756FF29E0CA8839
:103F3C004A2A28BF4A221549F6E7FFF741FC02241A
:103F4C001FE090F89C32032B03D0FFF739FC0224BE
:103F5C0017E0012205F10801FFF73EFF11E090F890
:103F6C009C32032B02D18B78AB600AE0FFF728FC64
:103F7C00022406E0FFF724FC022402E0FFF720FCF9
:103F8C000224204602B070BDB40000205C0000206A
:103F9C0010B504468121FFF740FA0023E362D4F800
:103FAC00B80220B1FFF784FA0023C4F8B83200201D
:103FBC0010BD10B50446042303228121FFF722FA19
:103FCC000123E3621020FFF76FFAC4F8B80218B1AE
:103FDC0003460020187310BD0220FCE7FFF7A3F87E
:103FEC000B480C490C4A002302E0D458C45004334B
:103FFC00C4188C42F9D3094A094C002301E0136020
:10400C000432A242FBD3FCF7CBF8FCF7A7F97047BC
:10401C000000002064010020C04000086401002062
:10402C0068090020FEE70000F8B500BFF8BC08BC2A
:10403C009E467047F8B500BFF8BC08BC9E4670475A
:10404C000102000002030405060708090A0B0C0D07
:10405C000E0F10100000000000000000010203040D
:10406C000607080953544D33322048756D616E2094
:10407C00696E7465726661636500000053544D6926
:10408C0063726F656C656374726F6E696373000045
:10409C0048494420436F6E666967000048494420D4
:0C40AC00496E7465726661636500000077
:0440B80021020008D9
:0440BC00FD010008FA
:1040C000010000001000000000127A001A03000036
:1040D00000000000000000000000000000000000E0
:1040E00000000000000000000403090412010002A7
:1040F0000000004083042B5700020102030100006E
:10410000753100088131000845320008213200086D
:104110000D320008613200088532000805010902ED
:10412000A1010901A10005091901290315002501B3
:10413000950375018102950175058101050109301D
:10414000093109381581257F750895038106C00955
:104150003C05FF09011500250175019502B1227585
:10416000069501B101C000000A06000200000040EF
:1041700001000000092111010001224A0000000095
:1041800009022200010100E03209040000010301DC
:104190000200092111010001224A000705810304E0
:1041A0000001000009022200010100E032090400C0
:1041B000000103010200092111010001224A000748
:1041C000058103040007000009022200010100E04C
:1041D000320904000001030102000921110100015C
:1041E000224A00070581030400010000BF3F0008C8
:1041F0009D3F0008893E000800000000000000000C
:10420000713E0008000000000000000000000000F7
:1042100000000000593E00084D3E0008653E0008C1
:044220007D3E0008D7
:0400000508003FE9C7
:00000001FF
