:020000040800F2
:1000000000500020DD4E0008F5050008FD05000841
:10001000FF050008010600080306000800000000B4
:1000200000000000000000000000000005060008BD
:100030000706000800000000090600080B0600087B
:10004000254F0008254F0008254F0008254F0008C0
:10005000254F0008254F0008254F0008254F0008B0
:10006000254F0008254F0008254F000815060008F9
:10007000254F0008254F0008254F0008254F000890
:10008000254F0008254F0008254F0008254F000880
:1000900025060008254F0008254F0008254F0008B9
:1000A000254F0008254F0008254F0008254F000860
:1000B000254F0008254F0008254F0008254F000850
:1000C000254F0008254F0008254F0008254F000840
:1000D000254F0008254F0008254F0008254F000830
:1000E000254F0008254F0008254F0008000000009C
:1000F0000000000000000000000000000000000000
:0C01000000000000000000005FF808F1A3
:10010C0070B5860747D0541E002A3ED00346CAB2AB
:10011C0001E0013C39D303F8012B9D07F9D1032CE5
:10012C002CD9CDB205EB05250F2C1A4605EB054550
:10013C0034D9A4F1100C2CF00F0603F1100EB644B8
:10014C004FEA1C1CC2E90055C2E902551032724537
:10015C00F8D10CF1010214F00C0F03EB021204F0B5
:10016C000F0C13D0ACF1040323F00303043313443A
:10017C0042F8045B9342FBD10CF003042CB1C9B2DE
:10018C001C4403F8011BA342FBD170BD644613460B
:10019C00002CF4D1F9E703461446C0E7A446E1E786
:1001AC0070B50F4B0F4DAB42A3EB050607D00024E7
:1001BC00B61055F8043B01349847A642F9D804F020
:1001CC00ADFE094D094B5E1BAB424FEAA60606D0AD
:1001DC00002455F8043B01349847A642F9D870BD69
:1001EC00C84F0008C84F0008C84F0008CC4F000883
:1001FC0010B5054C237833B9044B13B10448AFF355
:10020C0000800123237010BDA0010020000000001D
:10021C00284F000808B5034B1BB103490348AFF343
:10022C00008008BD00000000A4010020284F000839
:10023C0030B500218C460C468E460D4615E08B00E1
:10024C00124A32F8130080B20544581C32F81000E0
:10025C0080B28644981C32F8100080B204440333F8
:10026C0032F813309BB29C4401310F29E7D92D0A87
:10027C00074B1D70240ADC704FEA1E2E83F801E038
:10028C004FEA1C2C83F804C030BD00BFBC01002019
:10029C003C0200202BB168B90AB900207047072036
:1002AC00704718B921B93AB908207047881C7047B3
:1002BC00101D7047012070470620704710B5084C80
:1002CC000020E07120720823A37180236371A37056
:1002DC00034602460146FFF7DDFFA07110BD00BFCB
:1002EC003C02002008B5FFF7A3FFFFF7E7FF08BDAE
:1002FC0070B588B000240494059406940794254B9B
:10030C009A6942F010029A619A6902F01002009206
:10031C00009A9A6942F020029A619A6902F02002CE
:10032C000192019A9A6942F004029A619A6902F068
:10033C0004020292029A9A6942F008029A619B693D
:10034C0003F008030393039B134D0122402128461D
:10035C0001F074FA402304930123059306940226BA
:10036C00079604A9284601F05BF94CF2F0030493BC
:10037C000594069604A9094801F052F94FF440730C
:10038C0004930594069604A9284601F049F908B08F
:10039C0070BD00BF0010024000080140000C01407D
:1003AC0000B583B00A4B5A6942F001025A615B698D
:1003BC0003F001030193019B002211460B2001F075
:1003CC00B1FB0B2001F0BEFB03B05DF804FB00BFDA
:1003DC000010024072B6FEE700B585B00023019311
:1003EC00029303932148224A02604FF48072826088
:1003FC000122027303754FF46022C261436004232F
:10040C00036100F09BFB38BB012301930293022391
:10041C00039301A9154800F0E9F9F8B902230193F7
:10042C00029301A9114800F0E1F9C8B90423019322
:10043C000323029301A90D4800F0D8F990B90523C4
:10044C000193042302930DEB0301084800F0CEF94D
:10045C0050B905B05DF804FBFFF7BCFFFFF7BAFF1E
:10046C00FFF7B8FFFFF7B6FFFFF7B4FFE802002075
:10047C000024014008B50748074B03604FF0FF33D9
:10048C0043604FF48073836004F02AFA00B908BD0E
:10049C00FFF7A0FF900200200028004000B587B0B5
:1004AC000023029303930493059300930193134841
:1004BC004FF080420260436083604FF6FF72C2606F
:1004CC000361836104F016FC90B94FF480530293DE
:1004DC0002A90A4804F046FC60B90023009301937A
:1004EC006946064804F0BEFC30B907B05DF804FB61
:1004FC00FFF770FFFFF76EFFFFF76CFF480200205D
:10050C0000B595B0282200210DEB0200FFF7F8FD95
:10051C000023059306930793089309930193029381
:10052C000393049309230A934FF480330B93012212
:10053C000E9210920222119212934FF4E013139325
:10054C000AA800F05FFC00BB0F2305930221069163
:10055C00002307934FF480620892099305A800F0DA
:10056C0089FEA0B9132301934FF4007302934FF447
:10057C00004303930023049301A800F059FF40B9F2
:10058C0000F048FE15B05DF804FBFFF723FFFFF702
:10059C0021FFFFF71FFF000008B500F0F9FBFFF784
:1005AC00AFFFFFF7A5FEFFF7FBFEFFF715FF03F00C
:1005BC009FFAFFF75FFFFFF771FF084C204600F032
:1005CC0041FB40220649204600F0F4F9FFF78AFE71
:1005DC000921044804F0E2F9F8E700BFE802002022
:1005EC00BC0100203C02002008B500F011FFFEE722
:1005FC00FEE7FEE7FEE7FEE770477047704708B579
:10060C0000F0D8FB08BD000008B5024801F0A2F9C3
:10061C0008BD00BFA402002008B5024802F0A4F8EF
:10062C0008BD00BFFC07002082B00E4B9A6942F057
:10063C0001029A619A6902F001020092009ADA6949
:10064C0042F08052DA61DB6903F080530193019B25
:10065C00054A536823F0E06343F00073536002B023
:10066C00704700BF001002400000014010B586B07A
:10067C000023029303930493059302681E4B9A4242
:10068C0001D006B010BD044603F56C439A6942F4E0
:10069C0000729A619A6902F400720092009A9A6947
:1006AC0042F004029A619B6903F004030193019BDD
:1006BC00362302930323039302A9104800F0B0FFE2
:1006CC000F48104B03600023436083608022C2609C
:1006DC004FF4807202614FF4806242612022826189
:1006EC00C36101F0C7F818B9054B23625C62C8E717
:1006FC00FFF770FEF8E700BF00240140000801403E
:10070C00A40200200800024002680C4B9A4200D060
:10071C00704700B583B001F037FA094BDA6942F043
:10072C000062DA61DB6903F000630193019B054B06
:10073C000122C3F83C2403B05DF804FB0028004000
:10074C0000100240000042420368B3F1804F00D019
:10075C00704782B003F50433DA6942F00102DA61C2
:10076C00DB6903F001030193019B02B070477047F2
:10077C0008B5436A9A6A12F0500F1ED19A6A42F475
:10078C0000729A621A68926802F46022B2F5602FC5
:10079C0003D01846FFF7EBFF08BD1A7B002AF8D1EF
:1007AC009A6A22F480729A629A6A12F4805FF0D18B
:1007BC009A6A42F001029A62EBE71B6A1B6B98473C
:1007CC00EAE7704708B5406AFFF7FBFF08BD7047C2
:1007DC0008B5406A836A43F040038362C36A43F0FE
:1007EC000403C362FFF7F3FF08BD000030B482B00E
:1007FC000022019290F82420012A00F08F800346F9
:10080C00012280F824204A68062A2DD80468606BDF
:10081C0002EB8202053A4FF01F0C0CFA02FC20EAA4
:10082C000C000D6805FA02F2024362630A68092A99
:10083C0038D91C68E06802EB42021E3A4FF0070CF4
:10084C000CFA02FC20EA0C008D6805FA02F2024355
:10085C00E2600A68103A012A34D90020002283F899
:10086C00242002B030BC70470C2A0DD80568286BC8
:10087C0002EB8202233A1F24944020EA04000C6805
:10088C00944020432863D1E70568E86A02EB8202B2
:10089C00413A1F24944020EA04000C689440204301
:1008AC00E862C3E71C68206902EB42024FF0070CB8
:1008BC000CFA02FC20EA0C008D6805FA02F20243E5
:1008CC002261C6E71A681648824205D09A6A42F03D
:1008DC0020029A620120C1E7906810F4000F1BD12E
:1008EC00906840F4000090600A68102A01D0002043
:1008FC00B4E70C4A12680C49A1FB0212920C02EBF1
:10090C0082025200019202E0019A013A0192019A8C
:10091C00002AF9D10020A1E700209FE70220A0E7E0
:10092C00002401400800002083DE1B4330B583B057
:10093C000023019303689A6812F0010F33D1044627
:10094C009A6842F001029A60184B1B68184AA2FB85
:10095C0003239B0C019302E0019B013B0193019B40
:10096C00002BF9D100F032FA054623689B6813F08E
:10097C00010F16D100F02AFA431B022BF5D923687C
:10098C009B6813F0010FF0D1A36A43F01003A3622C
:10099C00E36A43F00103E362002384F8243001206E
:1009AC0002E0002000E0002003B030BD0800002071
:1009BC0083DE1B43F8B504460D46164601684448D1
:1009CC00814259D0434B994256D094F82430012B94
:1009DC007CD0012384F824302046FFF7A7FF07467C
:1009EC0000286ED1A16A21F4706121F0010141F45B
:1009FC008071A1622268374B9A4244D0A36A23F4D7
:100A0C008013A362536813F4806F05D0A36A23F498
:100A1C00405343F48053A362A36A13F4805F48D01D
:100A2C00E36A23F00603E362002384F82430236A8C
:100A3C00294A9A62236A294ADA62236A284A1A6383
:100A4C0023686FF002021A602268936843F4807383
:100A5C009360216833462A464C31206A00F03EFFF1
:100A6C0023689A6802F46022B2F5602F24D09A6849
:100A7C0042F480129A6027E0154B5B6813F4702FD8
:100A8C00A3D0012720E0A3F580635B6813F4702FDB
:100A9C00B4D0A36A43F48013A3620D4B5B6813F4C8
:100AAC00806FB9D0A36A23F4405343F48053A362FC
:100ABC00B2E70023E362B7E79A6842F4A0029A60B7
:100ACC0002E0002384F824303846F8BD0227FBE707
:100ADC0000240140002801407D070008D1070008D0
:100AEC00DD07000838B503689A6812F0010F01D1D0
:100AFC00002038BD04469A6822F001029A6000F08A
:100B0C0065F9054623689B6813F0010F13D000F0BC
:100B1C005DF9431B022BF5D923689B6813F0010F79
:100B2C00F0D0A36A43F01003A362E36A43F001031D
:100B3C00E3620120DDE70020DBE7000000287BD02A
:100B4C0070B50446836A002B4DD02046FFF7CAFFD0
:100B5C00A36A13F0100369D1002867D1A26A22F4AA
:100B6C00885222F0020242F00202A2626268E1693B
:100B7C000A43217B42EA4102A568B5F5807F02D089
:100B8C00012D36D01D46267D012E35D02668716884
:100B9C0021F46941294371602568AE6827493140C9
:100BAC001143A960A168B1F5807F01D0012902D160
:100BBC002369013B1B052568E96A21F470010B438D
:100BCC00EB62236899681E4B0B409A4225D0A36AAE
:100BDC0023F0120343F01003A362E36A43F0010312
:100BEC00E362012027E0C36280F82430FFF73EFD6A
:100BFC00ABE74FF48075C6E731B9A169013945EA15
:100C0C00413141F40065C1E7A16A41F02001A162C4
:100C1C00E16A41F00101E162B8E70023E362A36AF3
:100C2C0023F0030343F00103A36204E0A36A43F03F
:100C3C001003A362012070BD01207047FDF7E1FF96
:100C4C00FE0E1FFF70B582B00023019390F8243084
:100C5C00012B72D00446012380F82430FFF742FFA9
:100C6C002046FFF763FE054628B1002384F82430A4
:100C7C00284602B070BDA36A23F4885323F0020304
:100C8C0043F00203A3622E4B1E68022000F05CFCB2
:100C9C00B6FBF0F67600019602E0019B013B019356
:100CAC00019B002BF9D12268936843F008039360F1
:100CBC0000F08CF8064623689A6812F0080F14D0DE
:100CCC0000F084F8801B0A28F5D923689B6813F080
:100CDC00080FF0D0A36A23F0120343F01003A362B1
:100CEC00002384F824300125C2E79A6842F00402FC
:100CFC009A6000F06BF8064623689B6813F0040FAB
:100D0C0014D000F063F8801B0A28F5D923689B687F
:100D1C0013F0040FF0D0A36A23F0120343F0100376
:100D2C00A362002384F824300125A1E7A36A23F0F1
:100D3C00030343F00103A36297E7022598E700BF82
:100D4C000800002010B504460E4B1A784FF47A7345
:100D5C00B3FBF2F30C4A1068B0FBF3F000F000FFA9
:100D6C0068B90F2C01D901200AE0002221464FF06E
:100D7C00FF3000F0D7FE054B1C60002000E0012086
:100D8C0010BD00BF0000002008000020040000205F
:100D9C0008B5074A136843F010031360032000F0F2
:100DAC00AFFE0F20FFF7CEFFFFF73EFC002008BD83
:100DBC0000200240034A1168034B1B780B4413605C
:100DCC00704700BF1803002000000020014B18687A
:100DDC00704700BF1803002082B0084B1B68084AFC
:100DEC00A2FB03235B0A00FB03F3019300BF019BEF
:100DFC005A1E0192002BF9D102B070470800002056
:100E0C00D34D6210002800F0F18170B582B0044619
:100E1C00036813F0010F2CD0994B5B6803F00C03A3
:100E2C00042B1DD0964B5B6803F00C03082B12D0DF
:100E3C006368B3F5803F41D0002B55D103F180435B
:100E4C0003F504331A6822F480321A601A6822F40B
:100E5C0080221A6037E08A4B5B6813F4803FE7D03E
:100E6C00874B1B6813F4003F03D06368002B00F022
:100E7C00BF81236813F0020F75D0814B5B6813F0B0
:100E8C000C0F5FD07E4B5B6803F00C03082B54D027
:100E9C002369002B00F08A807A4B01221A60FFF73D
:100EAC0095FF0546764B1B6813F0020F75D1FFF7C3
:100EBC008DFF401B0228F5D903209EE1704A136870
:100ECC0043F480331360636843B3FFF77FFF054639
:100EDC006B4B1B6813F4003FCBD1FFF777FF401B24
:100EEC006428F5D9032088E1B3F5A02F09D0644B11
:100EFC001A6822F480321A601A6822F480221A606E
:100F0C00E1E703F18043A3F53C331A6842F48022F5
:100F1C001A601A6842F480321A60D4E7FFF756FF61
:100F2C000546574B1B6813F4003FA2D0FFF74EFF4A
:100F3C00401B6428F5D903205FE1514B5B6813F427
:100F4C00803FA5D14E4B1B6813F0020F03D02369D1
:100F5C00012B40F04F814A4A136823F0F803616972
:100F6C0043EAC1031360236813F0080F33D0A3695D
:100F7C00002B5CD0434B0122C3F88024FFF726FFE3
:100F8C0005463F4B5B6A13F0020F21D1FFF71EFFA2
:100F9C00401B0228F5D903202FE1394A136823F0AE
:100FAC00F803616943EAC1031360DCE7354B0022A7
:100FBC001A60FFF70BFF0546314B1B6813F0020F4D
:100FCC00D1D0FFF703FF401B0228F5D9032014E111
:100FDC000120FFF701FF236813F0040F00F0968047
:100FEC00274BDB6913F0805F34D1254BDA6942F073
:100FFC008052DA61DB6903F080530193019B012578
:10100C00214B1B6813F4807F26D0E368012B3DD065
:10101C00002B53D103F1804303F504331A6A22F0F9
:10102C0001021A621A6A22F004021A6233E0154BAA
:10103C000022C3F88024FFF7C9FE0546104B5B6AFB
:10104C0013F0020FC7D0FFF7C1FE401B0228F5D9E1
:10105C000320D2E00025D3E70B4A136843F48073D6
:10106C001360FFF7B3FE0646074B1B6813F4807F33
:10107C00CBD1FFF7ABFE801B6428F5D90320BCE075
:10108C000010024000004242007000405F4A136AA8
:10109C0043F001031362E36833B3FFF797FE064690
:1010AC005A4B1B6A13F0020F2FD1FFF78FFE801BD8
:1010BC0041F288339842F3D903209EE0052B09D0E6
:1010CC00524B1A6A22F001021A621A6A22F00402C6
:1010DC001A62E0E74D4B1A6A42F004021A621A6A6D
:1010EC0042F001021A62D6E7FFF770FE0646474B44
:1010FC001B6A13F0020F08D0FFF768FE801B41F249
:10110C0088339842F3D9032077E0E5B9E369002BE3
:10111C0072D03E4A526802F00C02082A56D0022BBA
:10112C0017D03B4B00221A66FFF750FE0446374B94
:10113C001B6813F0007F47D0FFF748FE001B022806
:10114C00F5D9032059E0314AD36923F08053D36198
:10115C00DCE72F4B00221A66FFF738FE05462B4BB7
:10116C001B6813F0007F06D0FFF730FE401B0228EF
:10117C00F5D9032041E0236AB3F5803F1AD0234907
:10118C004B6823F47413226A606A024313434B6066
:10119C001F4B01221A66FFF719FE04461B4B1B68F6
:1011AC0013F0007F0ED1FFF711FE001B0228F5D9BA
:1011BC00032022E0154A536823F40033A1680B4343
:1011CC005360DCE7002018E0002016E0012B16D05D
:1011DC000E4B5B6803F48031226A914211D103F407
:1011EC007013626A93420ED1002006E00120704712
:1011FC00012002E0012000E0002002B070BD0120BF
:10120C00FBE70120F9E70120F7E700BF00100240DF
:10121C0000004242014B0122DA6470470000424256
:10122C000F4B5B6803F00C02082A01D00D48704785
:10123C00C3F383420C49885C13F4803F0BD0084BFA
:10124C005B68C3F34043094AD35C064A02FB00F0D7
:10125C00B0FBF3F07047064B03FB00F0704700BF88
:10126C000010024000127A00444F0008404F000862
:10127C0000093D00002800F0A08070B50D46044622
:10128C00524B1B6803F007038B420BD24F4A136877
:10129C0023F007030B431360136803F007038B421F
:1012AC0040F08D80236813F0020F17D013F0040F59
:1012BC0004D0474A536843F4E0635360236813F047
:1012CC00080F04D0424A536843F460535360404AB9
:1012DC00536823F0F003A1680B435360236813F0A9
:1012EC00010F31D06368012B20D0022B25D0384A56
:1012FC00126812F0020F64D035494A6822F00302DA
:10130C0013434B60FFF762FD0646314B5B6803F0FD
:10131C000C036268B3EB820F16D0FFF757FD801BEE
:10132C0041F288339842F0D9032045E0284A1268EC
:10133C0012F4003FE0D101203EE0254A126812F081
:10134C00007FD9D1012037E0204B1B6803F0070345
:10135C00AB420AD91D4A136823F007032B431360D1
:10136C00136803F00703AB422DD1236813F0040F6D
:10137C0006D0174A536823F4E063E1680B435360CB
:10138C00236813F0080F07D0114A536823F46053F5
:10139C00216943EAC1035360FFF742FF0C4B5B68C2
:1013AC00C3F303130B4AD35CD8400B4B18600B4BA5
:1013BC001868FFF7C7FC002070BD012070470120A2
:1013CC00FAE70120F8E70120F6E700BF0020024011
:1013DC0000100240704F000808000020040000209C
:1013EC00014B1868704700BF0800002008B5FFF7D4
:1013FC00F7FF044B5B68C3F3C223034AD35CD840AA
:10140C0008BD00BF00100240684F00087047000084
:10141C0008B5064B9B6813F0800F00D108BDFFF791
:10142C00F5FF024B80229A72F8E700BF00100240D1
:10143C0070B582B00446036813F0010F36D03F4BF1
:10144C00DB6913F0805F49D13C4BDA6942F0805282
:10145C00DA61DB6903F080530193019B0125384B62
:10146C001B6813F4807F3BD0344B1B6A13F440731E
:10147C0013D0626802F440729A420ED02F4A136A5B
:10148C0023F440702F490126C1F840640026C1F8AE
:10149C004064106213F0010F36D1284A136A23F40A
:1014AC00407361680B431362002D3ED1236813F027
:1014BC00020F06D0214A536823F44043A1680B4322
:1014CC005360236813F0100F34D01C4A536823F474
:1014DC008003E1680B43536000202CE00025BEE73D
:1014EC00174A136843F480731360FFF76FFC0646CA
:1014FC00134B1B6813F4807FB6D1FFF767FC801B7E
:10150C006428F5D9032016E0FFF760FC06460B4B68
:10151C001B6A13F0020FC0D1FFF758FC801B41F27D
:10152C0088339842F3D9032005E0D36923F0805324
:10153C00D361BBE7002002B070BD00BF00100240B9
:10154C00007000400000424208B502284ED010281E
:10155C0003D0012828D0002052E02B4B5A68186881
:10156C0010F080704CD0C2F383432849C85C12F44D
:10157C00803F15D0244B5B68C3F34043244AD25CB4
:10158C00244BB3FBF2F303FB00F01F4B5B6813F42B
:10159C00800F35D14000204BA3FB003040082FE0DA
:1015AC001E4B03FB00F0F0E7174B1B6A40F20232B4
:1015BC001A40B2F5817F24D003F44073B3F5007F59
:1015CC0004D0B3F5407F09D0002019E00E4A526ACE
:1015DC0012F0020FF5D049F6404011E00A4B1868A2
:1015EC0010F400300CD04FF2244009E0FFF7FEFE5F
:1015FC00054B5B68C3F3813301335B00B0FBF3F045
:10160C0008BD4FF40040FBE700100240584F0008A3
:10161C00544F000800127A00ABAAAAAA00093D0098
:10162C0070B582B00024A446A1E07E4DAB4214D02C
:10163C000CD8A5F58015AB420FD005F57025AB4243
:10164C000BD0A5F58015AB4210D106E0764DAB4220
:10165C0003D005F58035AB4208D18B68002B50D0F8
:10166C00012B49D04261082400E0CC68BEF1FF0F89
:10167C0049D806464FEA8C0233680F25954023EA79
:10168C00050304FA02F2134333604B6813F0805FD6
:10169C006BD0664B9A6942F001029A619B6903F028
:1016AC0001030193019B4FEA9C02951C604B53F87C
:1016BC0025600CF00305AD000F23AB4026EA0306B2
:1016CC005C4B984226D003F58063984200F08C80E6
:1016DC0003F58063984200F0898003F5806398429B
:1016EC0016D0042317E0CC680434BFE7CC68083468
:1016FC00BCE7CC680C34B9E702610824B6E70024D7
:10170C00B4E70424B2E7061DACF108029200B3E77B
:10171C00032300E00023AB4033430232444D45F831
:10172C0022304B6813F4801F62D0434A936843EA1B
:10173C000E0393604B6813F4001F5FD03E4AD368CE
:10174C0043EA0E03D3604B6813F4003F5CD03A4A73
:10175C00536843EA0E0353604B6813F4803F59D02F
:10176C00354A136843EA0E0313600CF1010C0B6845
:10177C0033FA0CF254D0012202FA0CF203EA020EF4
:10178C0032EA0303F1D14B68122B3FF64EAF122B0A
:10179C003FF66CAF01A555F823F000BF67160008A3
:1017AC0077160008F91600080B17000879160008C0
:1017BC0079160008791600087916000879160008C1
:1017CC0079160008791600087916000879160008B1
:1017DC0079160008791600087916000879160008A1
:1017EC00F3160008FF160008012394E7022392E782
:1017FC00114A936823EA0E0393609BE70E4AD36861
:10180C0023EA0E03D3609EE70B4A536823EA0E03C8
:10181C005360A1E7084A136823EA0E031360A4E798
:10182C0002B070BD00002210000031100010024008
:10183C000000014000080140000401400AB10161B0
:10184C00704709040161704730B40124056CAC4049
:10185C00C56B6C60046863604368102B05D003682B
:10186C0099600368DA6030BC704703689A6003685B
:10187C00D960F8E750B310B402460168144B0B441E
:10188C001448A0FB03031B099B001364124BD36386
:10189C00022382F8213008686FF30D1053689468A6
:1018AC002343D46823431469234354692343946921
:1018BC002343D469234303430B600020906301232B
:1018CC0082F8213082F8200010BC7047012070474C
:1018DC00F8FFFDBFCDCCCCCC0000024038B504469F
:1018EC0090F82000012832D0012084F8200094F8D0
:1018FC002100C0B2012804D0002384F8203002203B
:10190C0038BD022084F821000020A06325682868D7
:10191C0020F0010028602046FFF796FFE36A5BB1D8
:10192C002268136843F00E0313602268136843F0B7
:10193C00010313600020E3E72268136823F004031B
:10194C0013602268136843F00A031360EDE702206A
:10195C00D6E7000038B5C36B1A6804682568016CBB
:10196C0004238B40134235D015F0040F32D023687A
:10197C0013F0200F03D1236823F0040323600368C2
:10198C00434A934214D01432934218D014329342E7
:10199C0017D01432934217D01432934217D014320A
:1019AC00934202D04FF0806203E04FF4800200E0DB
:1019BC000422384B5A60C36A03B1984738BD4022A1
:1019CC00F7E74FF48062F4E74FF48042F1E74FF40D
:1019DC008022EEE702238B4013423CD015F0020F1D
:1019EC0039D0236813F0200F06D1236823F00A03A3
:1019FC002360012380F821300368254A934214D0D8
:101A0C00143293421CD0143293421BD014329342A2
:101A1C001BD0143293421BD01432934202D04FF09D
:101A2C00007203E04FF4001200E00222194B5A60DE
:101A3C00002380F82030836A002BBFD09847BDE785
:101A4C002022F3E74FF40072F0E74FF40052EDE779
:101A5C004FF40032EAE708238B401342AED015F066
:101A6C00080FABD0236823F00E032360026CC16B0C
:101A7C00012303FA02F24A60836380F821300023C9
:101A8C0080F82030036B002B98D0984796E700BF66
:101A9C000800024000000240002808DB0901C9B21E
:101AAC0000F1604000F5614080F80013704700F0D1
:101ABC000F000901C9B2014B1954704714ED00E035
:101ACC0000B500F00700C0F1070CBCF1040F28BFF3
:101ADC004FF0040C031D062B0FD9C31E4FF0FF3E15
:101AEC000EFA0CF021EA000199400EFA03FE22EAEC
:101AFC000E0241EA02005DF804FB0023EEE7000051
:101B0C00074AD36823F4E0631B041B0C000200F4A7
:101B1C00E060034343F0BF6343F40033D36070478A
:101B2C0000ED00E010B50446054BD868C0F3022068
:101B3C00FFF7C6FF01462046FFF7AEFF10BD00BF02
:101B4C0000ED00E0002807DB00F01F024009012334
:101B5C009340024A42F82030704700BF00E100E099
:101B6C000138B0F1807F0BD24FF0E0235861054A69
:101B7C00F02182F823100020986107221A61704727
:101B8C000120704700ED00E0014B01221A62704702
:101B9C0000000E4238B512F4804F44D00468B4F8FB
:101BAC0050309BB291F800C003EBCC03023304EB32
:101BBC004304B4F80044C4F309048B69A34228D34A
:101BCC001B1B8B618B697BB9056835F82C309BB27C
:101BDC0023F4804323F0700383F4005343F4004355
:101BEC0043F0800325F82C3012F0400F0ED0026821
:101BFC000D7832F825309BB223F4E04323F07003C8
:101C0C0043F4004343F0C00322F8253024B92046A6
:101C1C0038BD00238B61D5E723460A8949690068E2
:101C2C0001F04DFFF3E70468B4F850309BB291F823
:101C3C0000C003EBCC03063304EB4304B4F80044BC
:101C4C00C4F309048B69A3422FD31B1B8B618B69D3
:101C5C007BB9056835F82C309BB223F4804323F014
:101C6C00700383F4005343F4004343F0800325F8DE
:101C7C002C3012F0400F0FD1026891F800C032F8EE
:101C8C002C309BB223F4E04323F0700343F4004365
:101C9C0043F0C00322F82C30002CB8D023464A89DC
:101CAC004969006801F00BFFB1E700238B61CEE7B7
:101CBC0038B500286ED0044690F89132A3B10323B6
:101CCC0084F8913200236371206800F08BFF234667
:101CDC0053F8040B0ECB00F075FF50B1022384F8BF
:101CEC0091320125284638BD80F8903201F0CEFFA4
:101CFC00E5E70021206800F07FFF034608B90246A3
:101D0C0015E0022384F891320125EBE702EB820106
:101D1C0004EBC101012048740A740020C8740862E5
:101D2C004862013202EB8201C9006050D2B22079C4
:101D3C009042EBD816E003EB830204EBC2020021C5
:101D4C0082F8511182F8503182F85311C2F86011A7
:101D5C00C2F8641103EB830204EBC202C2F86811EF
:101D6C000133DBB29842E6D8234653F8040B0ECB72
:101D7C0000F044FF054620B1022384F8913201257E
:101D8C00B0E700236373012384F89132206801F0DB
:101D9C0094FAA7E70125A5E738B590F89032012B06
:101DAC0011D00446012580F89052006800F011FF14
:101DBC002946204602F071F8206801F07CFA0020D8
:101DCC0084F8900238BD0220FCE770B505460C463D
:101DDC00164612F0400F00F00E810268B2F8503037
:101DEC009BB2097803EBC103023302EB4302B2F856
:101DFC000024C2F30902A36993424ED99B1AA36132
:101E0C00A369002B66D16378002B49D12B68B3F8FA
:101E1C00502092B2134403EB0113B3F80424C2F321
:101E2C000902A3F80424B3F804246FEA42426FEACF
:101E3C00524292B2A3F804242B686278002A3CD157
:101E4C00B3F8502092B21344227803EB0213B3F888
:101E5C000C24C2F30902A3F80C24B3F80C246FEA87
:101E6C0042426FEA524292B2A3F80C2421782846DF
:101E7C0001F040FF16F4804F41D02A68217832F8E7
:101E8C0021309BB223F4E04323F0700343F440432E
:101E9C0043F0800322F8213031E00023A361AFE747
:101EAC00012BC9D12B68B3F8502092B2134403EB29
:101EBC0001130022A3F80424BEE7012AD6D1B3F8FB
:101ECC00502092B21344227803EB02130022A3F8A1
:101EDC000C24CBE716F4804F0DD0286830F8213055
:101EEC009BB223F4E04323F0700343F4404343F0EC
:101EFC00800320F8213094F82430012B12D02A686A
:101F0C00217832F821309BB223F4E04323F04003D4
:101F1C0083F0300343F4004343F0800322F8213074
:101F2C00002070BD636913446361E3691344E3618A
:101F3C00216A2369994224D3C91A21626278002A42
:101F4C0044D12A68B2F8501089B20A44217802EBC5
:101F5C000112B2F80414C1F30901A2F804143E2BC7
:101F6C001BD9580913F01F0F00D10138B2F8041413
:101F7C0089B2800280B2014341F40041A2F80414FA
:101F8C0026E021B9002384F824301346D6E7002339
:101F9C0084F8243023620B46D0E74BB9B2F8041412
:101FAC006FEA41416FEA514189B2A2F804140FE083
:101FBC00590813F0010F00D00131B2F8040480B2BB
:101FCC00890289B20143A2F8041401E0012A06D067
:101FDC009BB222896169286801F077F98FE72A683A
:101FEC00B2F8501089B20A44217802EB011299B26E
:101FFC00A2F80414ECE70268B2F850309BB20978EE
:10200C0003EBC103063302EB4302B2F80024C2F324
:10201C000902A36993424FD39B1AA361A369002BB6
:10202C0067D16378002B4AD12B68B3F8502092B259
:10203C00134403EB0113B3F80424C2F30902A3F80D
:10204C000424B3F804246FEA42426FEA524292B27B
:10205C00A3F804242B686278002A3DD1B3F85020F1
:10206C0092B21344227803EB0213B3F80C24C2F39C
:10207C000902A3F80C24B3F80C246FEA42426FEA6D
:10208C00524292B2A3F80C242178284601F032FE79
:10209C0016F4804F7FF433AF2A68217832F8213060
:1020AC009BB223F4E04323F0700343F4404343F02A
:1020BC00800322F8213022E70023A361AEE7012B35
:1020CC00C8D12B68B3F8502092B2134403EB011320
:1020DC000022A3F80424BDE7012AD5D1B3F850207F
:1020EC0092B21344227803EB02130022A3F80C24BF
:1020FC00CAE716F4804F0DD1286830F821309BB216
:10210C0023F4E04323F0700343F4404343F0800393
:10211C0020F8213094F82430012B7FF4F0AE636961
:10212C0013446361E3691344E361216A23699942AF
:10213C0024D3C91A21622A686178002943D1B2F8E4
:10214C00501089B20A44217802EB0112B2F80C1437
:10215C00C1F30901A2F80C143E2B1BD9580913F03A
:10216C001F0F00D10138B2F80C1489B2800280B272
:10217C00014341F40041A2F80C1426E021B90023DC
:10218C0084F824301346D6E70023236284F82430E5
:10219C000B46D0E74BB9B2F80C146FEA41416FEA29
:1021AC00514189B2A2F80C140FE0590813F0010F39
:1021BC0000D00131B2F80C0480B2890289B201431B
:1021CC00A2F80C1401E0012906D09BB26289616966
:1021DC00286801F07AF892E6B2F8501089B20A44F5
:1021EC00217802EB011299B2A2F80C14EDE72DE95B
:1021FC00F04105462868B0F8443013F4004F00F065
:10220C009D82B0F84440A3B214F00F0440F0DE807D
:10221C0013F0100F6BD003889AB213F4006F40F0D8
:10222C00998012F4004FE5D0038823F070031B054E
:10223C001B0D43F0800303802868B0F850309BB22C
:10224C0095F8502103EBC203063300EB4303B3F8BC
:10225C000034C3F30903C5F86C318BB1D5F86411A4
:10226C0071B1B5F8562101F02AFCD5F86431D5F8D6
:10227C006C211344C5F864310021284601F02EFD71
:10228C002A68138899B213F4006FB3D101F440514A
:10229C00B1F5405FAED0B2F850309BB21A44B2F8F0
:1022AC000C34C3F30903A2F80C34D5F860313E2B7F
:1022BC0073D9590913F01F0F00D10139B2F80C343E
:1022CC009BB2890289B20B4343F40043A2F80C344D
:1022DC002A6813889BB223F4804323F0700383F4A1
:1022EC00405343F4004343F08003138082E7038898
:1022FC009BB223F4E14323F070036FEA43436FEA8C
:10230C0053439BB203802A68B2F850309BB2297CAD
:10231C0003EBC103023302EB4302B2F80034C3F304
:10232C000903EB626A6A1A446A620021284601F0CA
:10233C00E1FC6B7B002B3FF45DAFAB6A002B7FF4B1
:10234C0059AF6B7B2A6843F08003A2F84C30002312
:10235C006B734FE7B0F850309BB295F8502103EBFC
:10236C00C203063300EB4303B3F80034C3F3090391
:10237C00C5F86C31B5F8562105F5267101F09FFBB7
:10238C002A68138823F070031B051B0D43F0800390
:10239C001380284601F09AFC2CE74BB9B2F80C34A8
:1023AC006FEA43436FEA53439BB2A2F80C348FE7B6
:1023BC00590813F0010F00D00131B2F80C3498B267
:1023CC008B029BB20343A2F80C3481E730F8243023
:1023DC009EB213F4004F50D116F0800F3FF40AAFA9
:1023EC0004EB8401C900103129442A6832F82430E6
:1023FC009BB223F4E14323F070036FEA43436FEA8B
:10240C0053439BB222F8243004EB840305EBC30343
:10241C00DB7C012B00F0F28016F4807F40F0898188
:10242C002868B0F850309BB204EB840205EBC20272
:10243C00167C03EBC603023300EB4303B3F8003402
:10244C00C3F30903621C02EB820255F832209A4254
:10245C0040F25281671C07EB8707D21A45F83720E8
:10246C00621C02EB820255F83220002A40F04B81AC
:10247C003146284601F03EFCBCE630F8243023F00F
:10248C0070031B051B0D43F0800320F8243004EB74
:10249C008401C90001F5A87105EB010804EB840364
:1024AC0005EBC30393F85C31002B42D12868B0F8DC
:1024BC0050309BB204EB840205EBC20292F850211F
:1024CC0003EBC203063300EB4303B3F80074C7F30A
:1024DC00090717BB04EB840305EBC303D3F86C218A
:1024EC003A44C3F86C21D3F864213A44C3F864210C
:1024FC00D3F868313BB104EB840305EBC303D3F889
:10250C0060319F4275D204EB840305EBC30393F84F
:10251C005011284601F0E2FB5EE704EB840105EB69
:10252C00C1013B46B1F85621D1F8641101F0C7FA4C
:10253C00D0E704EB840305EBC30393F85331022B70
:10254C0035D0296804EB840205EBC20292F85001E5
:10255C0031F820309BB223F4E04323F0700343F4B2
:10256C00004343F0C00321F82030286892F8502132
:10257C0030F8223013F4804F20D0B0F850309BB29A
:10258C0003EBC203023300EB4303B3F80074C7F34D
:10259C000907002F9ED004EB840105EBC1013B46DB
:1025AC00B1F85821D1F8641101F089FA92E732465A
:1025BC0041462846FFF7EEFA07468BE7B0F8503055
:1025CC009BB203EBC203063300EB4303B3F8007476
:1025DC00C7F30907002F3FF47DAF04EB840105EB33
:1025EC00C1013B46B1F85A21D1F8641101F067FAE8
:1025FC0070E74146286800F07BFEEDE6631C03EBB8
:10260C008303DB000022EA5004EB840305EBC303D5
:10261C001B7F1BB316F0400F3BD004EB840305EB80
:10262C00C3035B7C1BBB2B68B3F8502092B21344E2
:10263C0004EB840205EBC202127C03EB0213B3F829
:10264C000424C2F30902A3F80424B3F804246FEAA7
:10265C0042426FEA524292B2A3F8042404EB84047F
:10266C0005EBC404217C284601F044FBC2E5012B98
:10267C00F4D12B68B3F8502092B2134404EB8402CB
:10268C0005EBC202127C03EB02130022A3F8042414
:10269C00E4E72B6804EB840205EBC202527CD2B94E
:1026AC00B3F8502092B2134404EB840205EBC2023F
:1026BC00127C03EB0213B3F80C24C2F30902A3F847
:1026CC000C24B3F80C246FEA42426FEA524292B2E5
:1026DC00A3F80C24C2E7012AC0D1B3F8502092B25F
:1026EC00134404EB840205EBC202127C03EB0213CD
:1026FC000022A3F80C24B1E7621C02EB8202D20088
:10270C000027AF50ACE604EB840205EBC202566A1C
:10271C001E445662013404EB840205EBC20252687B
:10272C0004EB840405EBC4041344636000F0E0FD87
:10273C0060E532462846FFF748FB5BE50020BDE824
:10274C00F08190F89032012B0CD010B50446012387
:10275C0080F890324173006800F0A7FD002084F8E7
:10276C00900210BD0220704710B584B0044600687A
:10277C0000F0A5FD10F4004F20D110F4806F21D192
:10278C0010F4804F2FD110F4005F37D110F4805F1C
:10279C003ED110F4006F40F0878010F4007F40F0C1
:1027AC00AE8010F4807F27D02268B2F844309BB200
:1027BC0023F480739BB2A2F844301DE02046FFF74F
:1027CC0016FD19E02268B2F844309BB223F4806302
:1027DC009BB2A2F84430204601F09DFA002120461D
:1027EC00FFF7AFFF08E02268B2F844309BB223F445
:1027FC0080439BB2A2F8443004B010BD2268B2F8FA
:10280C0044309BB223F400539BB2A2F84430F3E75C
:10281C002268B2F840309BB223F004039BB2A2F8BA
:10282C0040302268B2F840309BB223F008039BB2D0
:10283C00A2F84030204601F091FA2268B2F84430F8
:10284C009BB223F480539BB2A2F84430D4E72268A5
:10285C0032F8231004AA02EB430222F8101C0133B5
:10286C00DBB2072BF3D92268B2F840309BB243F0AD
:10287C000103A2F840302268B2F840309BB223F03A
:10288C0001039BB2A2F840302368B3F8442012F441
:10289C00806FF9D0B3F8442092B222F4806292B2E5
:1028AC00A3F8442000230BE00023DAE7226804A9F4
:1028BC0001EB430131F8101C22F823100133DBB279
:1028CC00072BF3D92268B2F840309BB243F00803CF
:1028DC00A2F840302268B2F844309BB223F4006373
:1028EC009BB2A2F844302268B2F840309BB243F05D
:1028FC000403A2F84030204601F020FA7CE722685D
:10290C00B2F844309BB223F400739BB2A2F844306B
:10291C00204601F0FAF96FE710B50446084611F0AD
:10292C00800F26D101F0070C0CEB8C0E4FEACE0E6B
:10293C000EF5A87E04EB0E010CEB8C0C04EBCC0C0E
:10294C004FF0000E8CF851E100F0070008700A619E
:10295C00CB70022B1DD094F89032012B1CD001238C
:10296C0084F89032206800F05AF9002084F8900224
:10297C0010BD01F0070C0CEB8C01C9001031214487
:10298C000CEB8C0C04EBCC0C4FF0010E8CF811E022
:10299C00DAE700230B71DEE70220E9E710B5044605
:1029AC000A4611F0800F1FD101F0070000EB8003E5
:1029BC00DB0003F5A873E11800EB800004EBC0000A
:1029CC00002380F8513102F007020A7094F890321B
:1029DC00012B17D0012384F89032206800F004FBFF
:1029EC00002084F8900210BD01F0070000EB80037A
:1029FC00DB001033E11800EB800004EBC000012376
:102A0C004374E0E70220EEE710B501F0070C0CEB85
:102A1C008C01C90001F5A8710CEB8C0E00EBCE0EED
:102A2C00CEF86421CEF868310024CEF86C418EF8D3
:102A3C0051418EF850C10144006800F059FC204609
:102A4C0010BD38B501F0070C0CEB8C01C90010312E
:102A5C000CEB8C0E00EBCE0ECEF824200CF1010208
:102A6C0002EB820440F8343001258EF83450CEF855
:102A7C00303000EBC402002454608EF811508EF8F4
:102A8C0010C00144006800F033FC204638BD38B556
:102A9C0001F007050279AA4235D304460B4611F022
:102AAC00800F1ED101EB8101C90001F5A871014411
:102ABC0003EB830300EBC303002283F851210123B2
:102ACC008B700D7094F89032012B1ED0012384F87A
:102ADC009032206800F073FB7DB1002084F89002E6
:102AEC0038BD05EB8501C9001031014405EB8503A8
:102AFC0000EBC30301225A74E1E704F52671206848
:102B0C0000F0E1FBE9E70120EAE70220E8E70B46E9
:102B1C00017903F00F02914234D310B5044613F03F
:102B2C00800F21D103F0070202EB8201C90001F5ED
:102B3C00A871014402EB820200EBC202002082F871
:102B4C00510100228A7003F007030B7094F8903245
:102B5C00012B19D0012384F89032206800F054FB2B
:102B6C00002084F8900210BD03F0070202EB8201F2
:102B7C00C9001031014402EB820200EBC2020120B9
:102B8C005074DEE7012070470220ECE711F0800F53
:102B9C000BD001F0070101EB8101C9001031084491
:102BAC0052B90273C3800020704701EB8101C90048
:102BBC0001F5A8710844F3E70122027303811B0C91
:102BCC004381F0E784B004A800E90E00002004B0B3
:102BDC00704703460020A3F844004FF43F42A3F88B
:102BEC0040207047B0F8403023F47C535B045B0CFE
:102BFC00A0F84030002070470020704784B0844615
:102C0C0004A800E90E000123ACF840300020ACF819
:102C1C004000ACF84400ACF8500004B0704710B55C
:102C2C00034691F800C030F82C2092B222F4EC420A
:102C3C0022F0700292B2C878032861D8DFE800F065
:102C4C00555C0258002048F2800E42EA0E0223F82E
:102C5C002C2091F800C033F82C2092B222F4E042E0
:102C6C0022F0700242EA0C0242EA0E0223F82C20F7
:102C7C000A7B002A40F0DC804A78002A51D0B3F855
:102C8C00502092B21A440C7802EB0412B1F806C030
:102C9C004FEA5C0C4FEA4C0CA2F800C40C7833F8E9
:102CAC00242012F0400F0CD033F8242092B222F4DE
:102CBC00E04222F0700242F4004242F0C00223F8DB
:102CCC002420CA78012A1DD0097833F8212092B229
:102CDC0022F4E04222F0400282F0200242F4004250
:102CEC0042F0800223F8212017E142F40072AAE797
:102CFC0042F4C0620020A6E742F480620020A2E702
:102D0C000120A0E7097833F8212092B222F4E042A6
:102D1C0022F0400242F4004242F0800223F82120CB
:102D2C00FBE0B3F8502092B21A440C7802EB041278
:102D3C00B1F806C04FEA5C0C4FEA4C0CA2F808C480
:102D4C00B3F8502092B21A440C7802EB0412B2F889
:102D5C000CC4CCF3090CA2F80CC40C693E2C39D968
:102D6C004FEA541E14F01F0F01D10EF1FF3EB2F8C2
:102D7C000CC41FFA8CFC4FEA8E2E1FFA8EFE4CEA06
:102D8C000E0C4CF4004CA2F80CC40C7833F8242034
:102D9C0012F4804F0CD033F8242092B222F4E0428B
:102DAC0022F0700242F4404242F0800223F82420C8
:102DBC00097869BB33F8212092B222F4804222F0C8
:102DCC00700282F4405242F4004242F0800223F836
:102DDC002120A2E04CB9B2F80C446FEA44446FEAEB
:102DEC005444A4B2A2F80C44CFE74FEA540C14F0AC
:102DFC00010F01D00CF1010CB2F80C44A4B24FEA53
:102E0C008C2C1FFA8CFC44EA0C04A2F80C44BCE792
:102E1C0033F8212092B222F4804222F0700282F424
:102E2C00005242F4004242F0800223F8212074E068
:102E3C00CA78022A72D00C7833F8242092B222F489
:102E4C00E24222F0700242F4004242F0800223F887
:102E5C002420B3F8502092B21A4491F800C002EB2F
:102E6C000C12B1F808C04FEA5C0C4FEA4C0CA2F8FB
:102E7C0000C4B3F8502092B21A4491F800C002EB8F
:102E8C000C12B1F80AC04FEA5C0C4FEA4C0CA2F8D9
:102E9C0008C44A78002A50D10C7833F8242012F454
:102EAC00804F0CD033F8242092B222F4E04222F06E
:102EBC00700242F4404242F0800223F824200C7845
:102ECC0033F8242012F0400F0CD033F8242092B2A7
:102EDC0022F4E04222F0700242F4004242F0C002BE
:102EEC0023F8242091F800C033F82C2092B222F45D
:102EFC00804222F0700282F4405248F28004224355
:102F0C0023F82C20097833F8212092B222F4E042E5
:102F1C0022F04002224323F8212010BD0C7833F814
:102F2C00242092B222F4E04222F0700242F40142D8
:102F3C0042F0800223F824208BE70C7833F824200D
:102F4C0012F4804F0CD033F8242092B222F4E042D9
:102F5C0022F0700242F4404242F0800223F8242016
:102F6C000C7833F8242012F0400F0CD033F82420C6
:102F7C0092B222F4E04222F0700242F4004242F09B
:102F8C00C00223F82420CA78012A1ED00C7833F80A
:102F9C00242092B222F4E04222F0400282F020027D
:102FAC0042F4004242F0800223F82420097833F8DE
:102FBC00212092B222F4804222F0700242F40042AC
:102FCC0042F0800223F82120A7E70C7833F8242064
:102FDC0092B222F4E04222F0400242F4004242F06B
:102FEC00800223F82420E1E70B7B002B46D14B78A1
:102FFC0013B30A7830F8223013F0400F0CD030F8AD
:10300C0022309BB223F4E04323F0700343F40043DB
:10301C0043F0C00320F822300A7830F822309BB2FB
:10302C0023F4E04323F0400343F4004343F08003D4
:10303C0020F82230002070470A7830F8223013F440
:10304C00804F0CD030F822309BB223F4E04323F0B5
:10305C00700343F4404343F0800320F822300A7895
:10306C0030F822309BB223F4804323F0700343F4F6
:10307C00004343F0800320F82230DBE74B78002B31
:10308C004ED10A7830F8223013F4804F0CD030F83F
:10309C0022309BB223F4E04323F0700343F440430B
:1030AC0043F0800320F822300A7830F8223013F0F5
:1030BC00400F0CD030F822309BB223F4E04323F0C5
:1030CC00700343F4004343F0C00320F822300A7825
:1030DC0030F822309BB223F4E04323F0700343F426
:1030EC00004343F0C00320F822300A7830F8223035
:1030FC009BB223F4804323F0700348F2800C43EA24
:10310C000C0320F822300A7830F822309BB223F4DA
:10311C00E04323F0400343EA0C0320F8223089E714
:10312C000A7830F8223013F4804F0CD030F822306B
:10313C009BB223F4E04323F0700343F4404343F089
:10314C00800320F822300A7830F8223013F0400F38
:10315C000CD030F822309BB223F4E04323F0700300
:10316C0043F4004343F0C00320F822300A7830F8CF
:10317C0022309BB223F4E04323F0700343F440432A
:10318C0043F0800320F822300A7830F822309BB2CA
:10319C0023F4E04323F0400348F2800C43EA0C0391
:1031AC0020F822300A7830F822309BB223F4804386
:1031BC0023F0700343EA0C0320F822303AE74B78F3
:1031CC008BB10A7830F822309BB223F4E04323F021
:1031DC00400383F0100343F4004343F0800320F8D2
:1031EC002230002070470A7830F822309BB223F44A
:1031FC00804323F0700383F4805343F4004343F083
:10320C00800320F82230ECE70B7B002B4BD14B7862
:10321C0033B30A7830F8223013F0400F0CD030F86A
:10322C0022309BB223F4E04323F0700343F40043B9
:10323C0043F0C00320F82230CB78012B33D00A782E
:10324C0030F822309BB223F4E04323F0400383F0A8
:10325C00200343F4004343F0800320F8223022E0A3
:10326C000A7830F8223013F4804F0CD030F822302A
:10327C009BB223F4E04323F0700343F4404343F048
:10328C00800320F822300A7830F822309BB223F4E5
:10329C00804323F0700383F4405343F4004343F022
:1032AC00800320F822300020704711B98023A0F849
:1032BC004C30002070470020704700207047B0F859
:1032CC00440080B270470020704701335B0800EB6C
:1032DC00420000F5806008E00A7891F801C042EAEB
:1032EC000C2220F8042B0231013B002BF4D1704747
:1032FC0070B505460C464A78012A3BD00B7B002B57
:10330C0040F0A6828B690A69934240F284829B1A30
:10331C008B61B5F850309BB22B44217803EB011331
:10332C00B3F80C14C1F30901A3F80C143E2A40F2B3
:10333C007682510912F01F0F00D10139B3F80C2419
:10334C0092B2890289B20A4342F40042A3F80C24D7
:10335C00227835F822309BB223F4804323F070039B
:10336C0083F4405343F4004343F0800325F82230A8
:10337C00002070BD8E6909698E4200D90E46237BF0
:10338C0073B3E378022B4DD0236A9B1B2362217805
:10339C0035F8213013F0400F00F0F581002A40F091
:1033AC00E281B5F850309BB22B4403EB0113B3F818
:1033BC000C24C2F30902A3F80C243E2E40F2BA816D
:1033CC00710916F01F0F00D10139B3F80C2492B219
:1033DC00890289B20A4342F40042A3F80C24CBE1DF
:1033EC00B6B23346E28861692846FFF76EFFB5F83E
:1033FC0050309BB22B44227803EB0213A3F80464E5
:10340C00227835F822309BB223F4E04323F04003BA
:10341C0083F0300343F4004343F0800325F822305B
:10342C000020A6E7236A994280F06681227835F85D
:10343C0022309BB223F4E04323F0700343F40143A6
:10344C0043F0800325F82230236A9B1B23622278E9
:10345C0035F8223013F0400F00F0A7806378B3BB2F
:10346C00B5F850309BB22B4403EB0213B3F80C2489
:10347C00C2F30902A3F80C243E2E0FD9710916F0E1
:10348C001F0F00D10139B3F80C2492B2890289B212
:10349C000A4342F40042A3F80C241AE04EB9B3F8E4
:1034AC000C246FEA42426FEA524292B2A3F80C2407
:1034BC000FE0720816F0010F00D00132B3F80C14B3
:1034CC0089B2920292B20A43A3F80C2401E0012BB8
:1034DC0030D0B3B2628961692846FFF7F6FE6369A2
:1034EC0033446361236A226993422DD99B1B236267
:1034FC006378002B45D1B5F850309BB22B44227821
:10350C0003EB0213B3F80424C2F30902A3F8042456
:10351C003E2E1DD9710916F01F0F00D10139B3F8D9
:10352C00042492B2890289B20A4342F40042A3F8FD
:10353C00042428E0B5F850309BB22B4403EB021363
:10354C00B2B2A3F80C24C4E7002222621E46CFE7D5
:10355C004EB9B3F804246FEA42426FEA524292B277
:10356C00A3F804240FE0720816F0010F00D001320A
:10357C00B3F8041489B2920292B20A43A3F8042459
:10358C0001E0012B06D0B3B2228961692846FFF70E
:10359C009CFE35E7B5F850309BB22B44227803EBF8
:1035AC000213B2B2A3F80424EDE76378B3BBB5F809
:1035BC0050309BB22B4403EB0213B3F80424C2F338
:1035CC000902A3F804243E2E0FD9710916F01F0F1F
:1035DC0000D10139B3F8042492B2890289B20A43AA
:1035EC0042F40042A3F804241AE04EB9B3F80424C0
:1035FC006FEA42426FEA524292B2A3F804240FE0FF
:10360C00720816F0010F00D00132B3F8041489B21D
:10361C00920292B20A43A3F8042401E0012B30D0A9
:10362C00B3B2228961692846FFF74FFE63693344C0
:10363C006361236A226993422DD99B1B23626378B1
:10364C00002B45D1B5F850309BB22B44227803EBBC
:10365C000213B3F80C24C2F30902A3F80C243E2E77
:10366C001DD9710916F01F0F00D10139B3F80C24C4
:10367C0092B2890289B20A4342F40042A3F80C24A4
:10368C0028E0B5F850309BB22B4403EB0213B2B2D6
:10369C00A3F80424C4E7002222621E46CFE74EB9E9
:1036AC00B3F80C246FEA42426FEA524292B2A3F88A
:1036BC000C240FE0720816F0010F00D00132B3F8A1
:1036CC000C1489B2920292B20A43A3F80C2401E0C2
:1036DC00012B06D0B3B2628961692846FFF7F5FD6C
:1036EC008EE6B5F850309BB22B44227803EB0213D4
:1036FC00B2B2A3F80C24EDE7217835F8212092B270
:10370C0022F4E24222F0700242F4004242F08002C3
:10371C0025F82120B5F8502092B22A44217802EBEA
:10372C0001129BB2A2F80434228961692846FFF782
:10373C00CCFD65E64EB9B3F80C246FEA42426FEA51
:10374C00524292B2A3F80C2416E0720816F0010F44
:10375C0000D00132B3F80C1489B2920292B20A432F
:10376C00A3F80C2408E0B5F850309BB22B4403EBC3
:10377C000113B2B2A3F80C24B3B262896169284672
:10378C00FFF7A3FD3CE6B2BBB5F850309BB22B441F
:10379C0003EB0113B3F80424C2F30902A3F80424C5
:1037AC003E2E0FD9710916F01F0F00D10139B3F855
:1037BC00042492B2890289B20A4342F40042A3F86B
:1037CC00042421E04EB9B3F804246FEA42426FEAB4
:1037DC00524292B2A3F8042416E0720816F0010FBC
:1037EC0000D00132B3F8041489B2920292B20A43A7
:1037FC00A3F8042408E0B5F850309BB22B4403EB3B
:10380C000113B2B2A3F80424B3B222896169284629
:10381C00FFF75BFDF4E500228A611A4679E54AB9A7
:10382C00B3F80C246FEA42426FEA524292B2A3F808
:10383C000C248DE5510812F0010F00D00131B3F8C2
:10384C000C2492B2890289B20A43A3F80C247FE5B6
:10385C00CB78022B4DD0012B40F02F818969236945
:10386C00994240F2E680C91AA161F2B9B5F850202C
:10387C0092B22A44217802EB0112B2F80414C1F37B
:10388C000901A2F804143E2B40F2D780580913F01A
:10389C001F0F00D10138B2F8041489B2800280B233
:1038AC00014341F40041A2F804146278002A40F06C
:1038BC00F680B5F8502092B22A44217802EB01121E
:1038CC00B2F80C14C1F30901A2F80C143E2B40F20F
:1038DC00CD80590913F01F0F00D10139B2F80C3407
:1038EC009BB2890289B20B4343F40043A2F80C3417
:1038FC002EE5F2B9B0F850309BB203440A7803EBD2
:10390C000213B3F80424C2F30902A3F804240A69CD
:10391C003E2A31D9510912F01F0F00D10139B3F8E9
:10392C00042492B2890289B20A4342F40042A3F8F9
:10393C0004246378002B51D1B5F850309BB22B4442
:10394C00227803EB0213B3F80C24C2F30902A3F898
:10395C000C2422693E2A28D9510912F01F0F00D1DC
:10396C000139B3F80C2492B2890289B20A4342F4A9
:10397C000042A3F80C2433E04AB9B3F804246FEAEC
:10398C0042426FEA524292B2A3F80424D1E75108A2
:10399C0012F0010F00D00131B3F8042490B28A0266
:1039AC0092B20243A3F80424C3E74AB9B3F80C2437
:1039BC006FEA42426FEA524292B2A3F80C240FE033
:1039CC00510812F0010F00D00131B3F80C2490B261
:1039DC008A0292B20243A3F80C2401E0012B1DD001
:1039EC00E369002B3FF4B4AC227835F8221044F292
:1039FC00400303EA01008B4302D000287FF4A8ACFB
:103A0C0035F822309BB223F4E04323F0700343F4E7
:103A1C00004343F0C00325F8223099E4B5F8503048
:103A2C009BB22B44227803EB0213228AA3F80C24BA
:103A3C00D6E70023A3610B4617E74BB9B2F8041481
:103A4C006FEA41416FEA514189B2A2F804142CE7A4
:103A5C00590813F0010F00D00131B2F8040480B200
:103A6C00890289B20143A2F804141EE74BB9B2F8DB
:103A7C000C346FEA43436FEA53439BB2A2F80C3405
:103A8C0066E4590813F0010F00D00131B2F80C3480
:103A9C0098B28B029BB20343A2F80C3458E4012A6F
:103AAC007FF456ACB5F8502092B22A44217802EB40
:103ABC0001129BB2A2F80C344AE4012059E410B470
:103ACC005C0800EB420000F5806007E030F8042B46
:103ADC000A70C2F307224A700231013C002CF5D166
:103AEC0013F0010F01D003880B7010BC70477047A6
:103AFC0008B500220F49104800F0D0F970B90F49F1
:103B0C000D4800F0E2F960B90D490B4801F07CF862
:103B1C0050B9094800F0E0F948B908BDFCF75AFC67
:103B2C00EDE7FCF757FCEFE7FCF754FCF1E7FCF78B
:103B3C0051FCF2E7400000201C030020680100202B
:103B4C005C00002012230B80004870472C000020E2
:103B5C0004230B8000487047280000200023934268
:103B6C001ED200B510E00CF1370C01F813C00001A7
:103B7C004FEA430C0CF1010C4FF0000E01F80CE075
:103B8C000133DBB2934209D24FEA107CB0F1204FE3
:103B9C00E9D20CF1300C01F813C0E8E75DF804FB36
:103BAC007047000038B50B4BD3F8E807D3F8EC4757
:103BBC00D3F8F037C01800D138BD074D082229467C
:103BCC00FFF7CCFF042205F110012046FFF7C6FFDA
:103BDC00F2E700BF00F0FF1F0E00002008B51A230B
:103BEC000B80FFF7DFFF014808BD00BF0C00002071
:103BFC0008B50A4628B90549054800F0C4FD034834
:103C0C0008BD0249024800F0BEFDF8E7E0050020BF
:103C1C00804F000810B50A46034C2146034800F0BB
:103C2C00B2FD204610BD00BFE0050020904F0008FB
:103C3C0008B50A4628B90549054800F0A4FD034813
:103C4C0008BD0249024800F09EFDF8E7E00500209F
:103C5C009C4F000808B50A4628B90549054800F0EC
:103C6C0092FD034808BD0249024800F08CFDF8E7BC
:103C7C00E0050020B04F0008022805D8DFE800F06E
:103C8C0005040200012070470220704702680E4BA9
:103C9C009A4200D0704700B583B003F5DA33DA6985
:103CAC0042F40002DA61DB6903F400030193019B27
:103CBC00002211461420FDF735FF1420FDF742FFBA
:103CCC0003B05DF804FB00BF005C004008B500F5D4
:103CDC002671D0F8D40200F017F908BD08B501EB35
:103CEC00810300EBC303D3F86421D0F8D40200F0B5
:103CFC0038F908BD08B501EB810300EBC3035A6A20
:103D0C00D0F8D40200F073F908BD08B5D0F8D4028D
:103D1C0000F014FA08BD10B504468379022B09D1C2
:103D2C000121D4F8D40200F0F2F9D4F8D40200F056
:103D3C00C6F910BDFCF74EFBF2E7000010B50446C7
:103D4C00D0F8D40200F0E6F9A37A23B1024A136941
:103D5C0043F00603136110BD00ED00E008B5D0F888
:103D6C00D40200F0E0F908BD10B504461948C0F8BB
:103D7C00D442C4F8C002184B036008230371022319
:103D8C00837100238372C3720373FDF791FFE8B94B
:103D9C00182300221146D4F8C002FEF7F7FE582370
:103DAC0000228021D4F8C002FEF7F0FE98230022F6
:103DBC008121D4F8C002FEF7E9FED82300220121AC
:103DCC00D4F8C002FEF7E2FE002010BDFCF702FBA7
:103DDC00DEE700BFFC070020005C004008B5D0F80F
:103DEC00C002FDF7D9FFFFF747FF08BD08B59446A1
:103DFC001A466346D0F8C002FEF78EFDFFF73CFF73
:103E0C0008BD08B5D0F8C002FEF7C8FDFFF734FFB7
:103E1C0008BD08B5D0F8C002FEF739FEFFF72CFF3D
:103E2C0008BD08B5D0F8C002FEF771FEFFF724FFFD
:103E3C0008BDD0F8C03211F0800F08D101F07F011D
:103E4C0001EB810103EBC10393F85201704701F0C0
:103E5C007F0101EB810103EBC103987C704708B52E
:103E6C00D0F8C002FEF76DFCFFF706FF08BD08B5E1
:103E7C00D0F8C002FEF7E5FDFFF7FEFE08BD08B561
:103E8C00D0F8C002FEF7C0FDFFF7F6FE08BD00003B
:103E9C0000487047E00700207047704798B108B59C
:103EAC000346D0F8B40210B10020C3F8B40209B133
:103EBC00C3F8B012012183F89C121A701846FFF750
:103ECC0053FF002008BD0220704719B1C0F8B4128E
:103EDC00002070470220704708B5FFF77FFF0020D5
:103EEC0008BD08B5D0F8B4322BB11B68984700B99F
:103EFC0008BD0220FCE70220FAE708B5D0F8B4327E
:103F0C005B689847002008BD38B5044600F52A7553
:103F1C00284600F035F90123C4F89432B4F8AE32D7
:103F2C00C4F8983294F8A81201F01F03012B08D0A2
:103F3C00022B0BD07BB92946204600F0CFFA00208B
:103F4C0038BD2946204600F0FDFAF8E72946204600
:103F5C0000F028FBF3E701F080012046FFF759FF42
:103F6C00EDE738B504460D4691BB1346D0F89422C4
:103F7C00032A03D0052A24D0084633E0D0F8601178
:103F8C00D0F8642191420DD9891AC0F860118A4287
:103F9C0006D98AB21946204600F036FC284621E0A4
:103FAC0092B2F7E7D0F8B4321B691BB190F89C229F
:103FBC00032A04D0204600F02FFC284612E0984734
:103FCC00F8E70021C0F89412FFF723FF284609E018
:103FDC00D0F8B4329B6933B190F89C22032A04D1F7
:103FEC009847002038BD0220FCE70220FAE738B5DC
:103FFC0004460D46002953D11346D0F89422022AC8
:10400C000CD0042A00D01AB980212046FFF701FFFA
:10401C0094F8A032012B3ED0284638BD026A416A82
:10402C008A421BD8C269B2FBF1F301FB13232BB9F3
:10403C00914203D8D0F898329A421CD3D4F8B432B7
:10404C00DB681BB194F89C22032A21D080212046E6
:10405C00FFF7DFFE204600F0EAFBD9E7521A0262B6
:10406C0092B2194600F0B9FB00231A4619462046B5
:10407C00FFF705FFCCE70022114600F0AEFB002154
:10408C00C4F898120B460A462046FFF7F8FEBFE725
:10409C0020469847DAE7002384F8A0322846BCE78C
:1040AC00D0F8B4325B6933B190F89C22032A04D166
:1040BC0098470020B1E70220AFE70220ADE770B5CA
:1040CC000446402300221146FFF790FE0125C4F858
:1040DC0058514026C4F864613346002280212046A2
:1040EC00FFF784FEA561666284F89C520023C4F835
:1040FC0094326360C4F8A432D4F8B8322BB1D4F83B
:10410C00B4325B68002120469847002070BD0174D2
:10411C000020704790F89C3280F89D32042380F880
:10412C009C320020704790F89C32042B01D0002068
:10413C00704790F89D3280F89C32F8E708B590F8FB
:10414C009C32032B01D0002008BDD0F8B432DB69BF
:10415C00002BF8D09847F6E70346002002E0013028
:10416C00C0B201331A78002AF9D1704708B54B88D0
:10417C00012B00D008BDC0F8A43200F04DFBF9E7CC
:10418C000B7803704B7843708B78CA7803EB02235F
:10419C0043800B794A7903EB022383808B79CA79AC
:1041AC0003EB0223C380704710B504468021FFF750
:1041BC0030FE00212046FFF72CFE10BD30B583B039
:1041CC0005460C460023ADF806304A88130A013B1D
:1041DC00062B00F2A480DFE803F004182CA2A286C0
:1041EC009300D0F8B0321B680DF10601007C9847A3
:1041FC00BDF806201AB1E388002B40F09480E388C8
:10420C00002B00F09A8003B030BD037C43B9D0F88A
:10421C00B4329B6A0DF10600984702234370E7E71E
:10422C00D0F8B432DB6A0DF10600984702234370D4
:10423C00DEE7D2B2052A52D8DFE802F003101D2ABD
:10424C003744D0F8B0325B6823B10DF10601007C25
:10425C009847CDE72146FFF7A7FFD4E7D0F8B03257
:10426C009B6823B10DF10601007C9847C0E72146FD
:10427C00FFF79AFFC7E7D0F8B032DB6823B10DF136
:10428C000601007C9847B3E72146FFF78DFFBAE79C
:10429C00D0F8B0321B6923B10DF10601007C9847B0
:1042AC00A6E72146FFF780FFADE7D0F8B0325B6997
:1042BC0023B10DF10601007C984799E72146FFF7E1
:1042CC0073FFA0E7D0F8B0329B6923B10DF1060162
:1042DC00007C98478CE72146FFF766FF93E7214661
:1042EC00FFF762FF8FE7037C33B9D0F8B4325B6B16
:1042FC000DF1060098477BE72146FFF755FF82E753
:10430C00037C43B9D0F8B4321B6B0DF1060098470F
:10431C00072343706CE72146FFF746FF73E72146FE
:10432C00FFF742FF6FE79A4228BF1A46ADF8062006
:10433C000146284600F044FA61E7284600F06CFA82
:10434C0061E738B504468B88F3B9CB88E3B94B8861
:10435C007F2B19D803F07F0590F89C32032B0CD0DF
:10436C0080F89E522946FFF77AFD204600F054FA59
:10437C0035B1022384F89C3209E0FFF715FF06E003
:10438C00012384F89C3202E02046FFF70DFF38BD74
:10439C0038B504460D468978284B197001290ED87A
:1043AC0090F89C32022B0ED0032B21D02946FFF71C
:1043BC00FBFE224B19782046FFF79FFD02E02946B1
:1043CC00FFF7F2FE38BD81B14160032380F89C32C7
:1043DC00FFF787FD022803D0204600F01DFAF1E715
:1043EC0029462046FFF7E0FEECE700F015FAE9E776
:1043FC0089B1436899421DD0D9B2FFF77EFD0F4BAE
:10440C00197861602046FFF76CFD02280DD020461C
:10441C0000F002FAD6E7022380F89C324160FFF7E5
:10442C006CFD204600F0F8F9CCE729462046FFF752
:10443C00BBFEC7E700F0F0F9C4E700BFD40A0020C8
:10444C0008B5CB88012B0AD190F89C32022B09D9E4
:10445C00032B11D10122011D00F0B2F901E0FFF78D
:10446C00A3FE08BD5BB23BB10146002341F8083FF7
:10447C00012200F0A5F9F4E7FFF796FEF1E708B585
:10448C0090F89C32013B022B12D8CB88022B0CD11A
:10449C000123C360D0F8A4320BB10323C360022202
:1044AC0000F10C0100F08CF908BDFFF77DFEFBE775
:1044BC00FFF77AFEF8E708B590F89C32013B022B27
:1044CC0009D84B88012B00D008BD0023C0F8A432BA
:1044DC0000F0A2F9F8E7FFF767FEF5E708B50B78EF
:1044EC0003F06003202B05D0402B03D043B1FFF722
:1044FC005BFE03E0D0F8B4329B689847002008BDFF
:10450C004B78092B1BD8DFE803F011171A141A0883
:10451C00051A0E0BFFF752FEF0E7FFF712FFEDE75F
:10452C00FFF736FFEAE7FFF78BFFE7E7FFF7A7FF99
:10453C00E4E7FFF71BFEE1E7FFF7BDFFDEE7FFF760
:10454C0033FEDBE738B505460C460B7803F0600309
:10455C00202B06D0402B04D01BB1FFF725FE0020EA
:10456C0038BD95F89C32013B022B16D82379012BD0
:10457C000ED8D5F8B4329B68214628469847E38874
:10458C00002BECD10028EAD1284600F045F9E6E7EB
:10459C0021462846FFF708FEE1E721462846FFF7AB
:1045AC0003FEDCE770B505468B880C7804F06004DC
:1045BC00202C07D0DAB2402C04D05CB1FFF7F4FD0C
:1045CC00002405E0D5F8B4329B68284698470024AF
:1045DC00204670BD202C09D04E78012E33D0032EEE
:1045EC000AD0002E55D0FFF7DFFDF1E7D0F8B4323A
:1045FC009B6898470446EBE790F89C32022B04D05A
:10460C00032B11D0FFF7D0FDE2E70AB1802A03D1CA
:10461C002846FFF7C9FDDBE71146FFF7FAFB8021BF
:10462C002846FFF7F6FBD3E74B8823B91AB1802A4B
:10463C0001D0CB881BB1284600F0EEF8C8E7114634
:10464C00FFF7E7FBF7E790F89C32022B04D0032B23
:10465C0011D0FFF7A9FDBBE70AB1802A03D1284688
:10466C00FFF7A2FDB4E71146FFF7D3FB80212846E4
:10467C00FFF7CFFBACE74B88002BA9D112F07F0FD3
:10468C0003D1284600F0C8F8A2E71146FFF7C9FB92
:10469C00F7E790F89C02022806D0032829D0284678
:1046AC00FFF782FD344693E70AB1802A13D113F049
:1046BC00800F15D102F07F0202EB8202910001F50E
:1046CC00A8712944043100230B600222284600F013
:1046DC0077F834467CE72846FFF766FD344677E7E3
:1046EC0002F07F0202EB8202910010312944043166
:1046FC00E9E75BB2002B1FDB02F00F0000EB800040
:10470C0005EB8000D0F8580120B3002B27DB02F01A
:10471C007F0303EB83039C0004F5A8742C4404343E
:10472C000AB1802A24D10023236002222146284684
:10473C0000F046F834464BE702F00F0000EB800027
:10474C0005EB800080690028DFD12846FFF72CFD9F
:10475C0034463DE72846FFF727FD344638E702F09C
:10476C007F0303EB83039C0010342C440434D7E701
:10477C0011462846FFF75DFB10B101232360D4E7F7
:10478C0000232360D1E7D0B170B50D461646044620
:10479C00FFF7E2FC431C5B009BB233802B700323BE
:1047AC006B70022307E001345A1CD2B2E854023376
:1047BC00DBB20021A95420780028F4D170BD7047D9
:1047CC0008B513460222C0F89422C36103620A465C
:1047DC000021FFF74CFB002008BD08B513460A4624
:1047EC000021FFF744FB002008BD08B51346032247
:1047FC00C0F89422C0F85C31C0F860310A46002140
:10480C00FFF73DFB002008BD08B513460A46002102
:10481C00FFF735FB002008BD08B50423C0F894321F
:10482C0000231A461946FFF722FB002008BD08B5E5
:10483C000523C0F8943200231A461946FFF71FFBD4
:10484C00002008BD38B50446FCF7C0FA05462368BD
:10485C005A6812F0200F07D1FCF7B8FA401BB0F5DC
:10486C007A7FF4D9032004E05A6842F010025A60AF
:10487C00002038BD38B504460268536823F0100395
:10488C005360FCF7A3FA054623685B6813F0200F0E
:10489C0007D1FCF79BFA401BB0F57A7FF4D90320C3
:1048AC0000E0002038BDC0B138B505460268536839
:1048BC0023F008035360FCF789FA04462B685B6805
:1048CC0013F0080F07D1FCF781FA001BB0F57A7FC3
:1048DC00F4D9032000E0002038BD0120704700000F
:1048EC00002850D010B50446437C4BB102236374AE
:1048FC002046FFF7D8FF38B104236374012010BDA4
:10490C000374FBF701FFF1E72046FFF79BFF28BB81
:10491C002268536823F007035360A36823B11B4A32
:10492C00136B23F001031363184AD36A23F46073E7
:10493C00A1680B43D3626368B3F1FF3F12D02268C6
:10494C00C3F30341916022689BB2D3602046FFF70A
:10495C0091FF88B1042363740120D0E704236374AE
:10496C000120CCE70120FCF7EFFD08B1431EE6E780
:10497C00042363740120C2E70023E37301236373F0
:10498C00A3736374BBE70120704700BF006C004049
:10499C0000207047002070470020704708B50A4679
:1049AC000146024800F01AF940B208BD1C03002071
:1049BC0029230380004870473C01002029230380F1
:1049CC0000487047100100202923038000487047DD
:1049DC00E4000020D0F8B83200201875704710B5EC
:1049EC00D0F8B8422369012B01D0002010BDD0F8BB
:1049FC00BC32DB6861782078984700232361F4E7A8
:104A0C000A23038000487047CC00002038B50446C8
:104A1C00D0F8B852D0F8BC32DB686978287898475F
:104A2C0002232A4601212046FFF729FA002038BD2F
:104A3C0070B582B0D0F8B8520023ADF806300C78BF
:104A4C0014F060042ED0202C7CD14B78023B092B27
:104A5C0024D8DFE803F0140923232323231B0F0599
:104A6C008B786B60002470E00122291DFFF7A8FEF3
:104A7C0000246AE04B881B0AAB60002465E001222D
:104A8C0005F10801FFF79CFE00245EE001232B6179
:104A9C00CA882946FFF7A9FE002456E0FFF784FBDD
:104AAC00022452E04E780B2E48D8DFE806F0064779
:104ABC0047474747154747472E3C90F89C32032BF6
:104ACC0003D0FFF771FB02243FE002220DF1060137
:104ADC00FFF776FE344638E04B881B0A222B06D0B3
:104AEC00212B0CD000210A46FFF76AFE2DE0CA8864
:104AFC005D2A28BF5D22D0F8BC321968F4E7CA8859
:104B0C00092A28BF09221249EEE790F89C32032BA0
:104B1C0003D0FFF749FB022417E0012205F10C0139
:104B2C00FFF74EFE11E090F89C32032B02D18B78EC
:104B3C00EB600AE0FFF738FB022406E0FFF734FBDA
:104B4C00022402E0FFF730FB0224204602B070BDC5
:104B5C00D800002038B504468121FFF752F9002512
:104B6C00E56201212046FFF74CF9C4F86C51D4F8EA
:104B7C00B8324BB1D4F8BC329B689847D4F8B80221
:104B8C00FFF78AF9C4F8B852002038BD70B5044656
:104B9C00092303228121FFF729F90125E56202236C
:104BAC00032229462046FFF721F9C4F86C5118203E
:104BBC00FFF76EF9C4F8B80270B105460026067509
:104BCC00D4F8BC325B68984702232A460121204660
:104BDC00FFF755F9304670BD0120FCE738B5D0F829
:104BEC00B85290F89C32032B02D00024204638BDDA
:104BFC002C7D0CB10124F9E701232B7513460A46D1
:104C0C008121FFF734F9F1E719B1C0F8BC1200208B
:104C1C0070470220704710B4036A046A24F0010440
:104C2C000462846924F0F00C4CEA021223F00A03AB
:104C3C000B438261036210BC704710B4036A046AB0
:104C4C0024F010040462846924F4704C4CEA02329F
:104C5C0023F0A00343EA01138261036210BC704786
:104C6C00836823F070030B4343F0070383607047A2
:104C7C0003681F4A90420AD0B0F1804F07D0A2F5CA
:104C8C009432904203D002F58062904203D123F01B
:104C9C0070034A681343164A90420AD0B0F1804F11
:104CAC0007D0A2F59432904203D002F58062904274
:104CBC0003D123F44073CA68134323F080034A6979
:104CCC00134303608B68C3620B688362084B984282
:104CDC000AD001234361036913F0010F03D0036968
:104CEC0023F00103036170470B690363F1E700BF15
:104CFC00002C014040B310B5044690F83D30F3B1A0
:104D0C00022384F83D30214651F8040BFFF7B0FF25
:104D1C00012384F8463084F83E3084F83F3084F820
:104D2C00403084F8413084F8423084F8433084F8C1
:104D3C00443084F8453084F83D30002010BD80F8B4
:104D4C003C30FBF701FDDBE70120704710B48468B1
:104D5C0024F47F4C42EA03220A4342EA0C028260AA
:104D6C0010BC704790F83C30012B78D010B504463D
:104D7C00012380F83C30022380F83D3002689368B0
:104D8C0023F47F4323F0770393600B68602B4CD0A4
:104D9C0023D8402B54D011D8202B03D00AD80BB1D8
:104DAC00102B05D119462068FFF75AFF002028E088
:104DBC00012026E0302BF5D0012022E0502B0AD127
:104DCC00CA6849680068FFF726FF50212068FFF782
:104DDC0047FF002015E0012013E0B3F5805F3AD0C7
:104DEC00B3F5005F14D0702B37D1CB684A68896853
:104DFC000068FFF7ABFF2268936843F0770393607A
:104E0C000020012384F83D30002384F83C3010BD91
:104E1C00CB684A6889680068FFF798FF2268936836
:104E2C0043F4804393600020EBE7CA68496800684C
:104E3C00FFF703FF60212068FFF712FF0020E0E777
:104E4C00CA6849680068FFF7E6FE40212068FFF752
:104E5C0007FF0020D5E70020D3E70120D1E702208F
:104E6C007047000090F83C20012A2CD010B4034667
:104E7C00012280F83C20022280F83D200268506814
:104E8C00946820F0700C086840EA0C0050601A68B6
:104E9C000E4882420AD0B2F1804F07D0A0F5943070
:104EAC00824203D000F58060824204D124F0800459
:104EBC00496821439160012283F83D20002083F84A
:104ECC003C0010BC70470220704700BF002C014012
:104EDC00FEF70DFE0B480C490C4A002302E0D45897
:104EEC00C4500433C4188C42F9D3094A094C00232A
:104EFC0001E013600432A242FBD3FBF751F9FBF73C
:104F0C004BFB704700000020A0010020D04F000890
:104F1C00A0010020D80A0020FEE70000F8B500BF71
:104F2C00F8BC08BC9E467047F8B500BFF8BC08BC7E
:044F3C009E467047D6
:104F40000102000002030405060708090A0B0C0D04
:104F50000E0F1010010200000203040506070809E5
:104F60000A0B0C0D0E0F10100000000001020304CC
:104F70000000000000000000010203040607080909
:104F80004A2D436F6E74726F6C6C65720000000086
:104F90004A6F6E61727420420000000043757374A2
:104FA0006F6D2048494420436F6E666967000000BA
:104FB000437573746F6D2048494420496E7465725F
:084FC00066616365000000005A
:044FC80021020008BA
:044FCC00FD010008DB
:104FD000010000001000000000127A001A03000017
:104FE00000000000000000000000000000000000C1
:104FF0000000000000000000040309041201000288
:105000000000004009128E020002010203010000AC
:10501000513B00085D3B0008213C0008FD3B0008B7
:10502000E93B00083D3C0008613C00086C000020A2
:105030009D490008A1490008A54900080501090586
:10504000A101A100050109300931093209330934F0
:105050000935150026FF00350046FF007508950646
:1050600081020939150025073500463B0165147595
:1050700004950181426500750495018103050919B4
:1050800001290A15002501350045017501950A81A0
:1050900002750195068103C0C00000000A060002E7
:1050A0000000004001000000092111010001225D03
:1050B0000000000009022900010100C032090400BB
:1050C000000203000000092111010001225D000718
:1050D000058103090001070501030200010000002A
:1050E00009022900010100C0320904000002030086
:1050F0000000092111010001225D0007058103095B
:10510000000507050103020005000000090229004F
:10511000010100A0FA0904000002030000000921B7
:1051200011010001225D0007058103090001070547
:105130000103020001000000994B0008614B0008C8
:105140003D4A000800000000EB490008E149000862
:10515000194A0008000000000000000000000000E4
:10516000C9490008BD490008D54900080D4A000892
:0400000508004EDDC4
:00000001FF
